:100000000C945D000C9485000C9485000C94850084
:100010000C9485000C9485000C9485000C9485004C
:100020000C9485000C9485000C9485000C9485003C
:100030000C9485000C9485000C9485000C9485002C
:100040000C943B040C9485000C94AB040C94850434
:100050000C9485000C9485000C9485000C9485000C
:100060000C9485000C94850000000008000201003B
:100070000003040700000000000000000000000072
:10008000250028002B0000000000240027002A0083
:10009000040404040404040402020202020203032E
:1000A0000303030301020408102040800102040836
:1000B00010200102040810207A0711241FBECFEF80
:1000C000D8E0DEBFCDBF11E0A0E0B1E0E8EFFAE19B
:1000D00002C005900D92A635B107D9F722E0A6E53A
:1000E000B1E001C01D92A230B207E1F710E0CDE50A
:1000F000D0E004C02197FE010E94820BCC35D107CD
:10010000C9F70E94DD040C947A0D0C94000090E075
:10011000FC01EC55FF4F249180579F4FFC018491C7
:10012000882399F090E0880F991FFC01EA57FF4F50
:10013000A591B491FC01E458FF4F859194918FB73C
:10014000F894EC91E22BEC938FBF089590E0FC01C2
:10015000E859FF4F2491FC01EC55FF4F3491FC010D
:10016000E057FF4FE491EE23C9F0222339F023300A
:1001700001F1A8F4213019F1223029F1F0E0EE0F5D
:10018000FF1FE458FF4FA591B4918FB7F894EC91FD
:10019000611126C030953E233C938FBF08952730D0
:1001A000A9F02830C9F0243049F7809180008F7D74
:1001B00003C0809180008F7780938000DFCF84B56B
:1001C0008F7784BDDBCF84B58F7DFBCF8091B0006E
:1001D0008F778093B000D2CF8091B0008F7DF9CF20
:1001E0003E2BDACF1F93CF93DF93182FEB010E94A2
:1001F0008700209739F460E0812FDF91CF911F9124
:100200000C94A600CF3FD10511F461E0F5CFE12FAA
:10021000F0E0E859FF4FE491E33031F140F4E13090
:10022000B1F0E230E1F0C038D1057CF7E4CFE7303F
:1002300029F1E83059F1E430B1F780918000806213
:1002400080938000D0938B00C0938A0004C084B553
:10025000806884BDC7BDDF91CF911F91089584B59B
:10026000806284BDC8BDF7CF809180008068809394
:100270008000D0938900C0938800EDCF8091B000BA
:1002800080688093B000C093B300E5CF8091B00048
:1002900080628093B000C093B400DDCFAF92BF9274
:1002A000CF92DF92EF92FF920F931F93CF93DF9342
:1002B0006C017B018B01040F151FEB015E01AE1871
:1002C000BF08C017D10759F06991D601ED91FC9193
:1002D0000190F081E02DC6010995892B79F7C501C0
:1002E000DF91CF911F910F91FF90EF90DF90CF9012
:1002F000BF90AF900895FC01538D448D252F30E0C1
:10030000842F90E0821B930B541710F0CF96089522
:1003100001970895FC01918D828D981761F0A28D4F
:10032000AE0FBF2FB11D5D968C91928D9F5F9F7315
:10033000928F90E008958FEF9FEF0895FC01918DCB
:10034000828D981731F0828DE80FF11D858D90E038
:1003500008958FEF9FEF0895FC01918D228D892FD5
:1003600090E0805C9F4F821B91098F7399270895BD
:1003700081E691E00E94AC0121E0892B09F420E0A4
:10038000822F089580E090E0892B29F00E94B80127
:1003900081110C9400000895FC01A48DA80FB92FC1
:1003A000B11DA35ABF4F2C91848D90E001968F739D
:1003B0009927848FA689B7892C93A089B1898C91BC
:1003C000837080648C93938D848D981306C002880B
:1003D000F389E02D80818F7D80830895EF92FF92D5
:1003E0000F931F93CF93DF93EC0181E0888F9B8D58
:1003F0008C8D98131AC0E889F989808185FF15C012
:100400009FB7F894EE89FF896083E889F989808134
:100410008370806480839FBF81E090E0DF91CF9103
:100420001F910F91FF90EF900895F62E0B8D10E025
:100430000F5F1F4F0F731127E02E8C8D8E110CC094
:100440000FB607FCFACFE889F989808185FFF5CFDF
:10045000CE010E94CC01F1CFEB8DEC0FFD2FF11DF1
:10046000E35AFF4FF0829FB7F8940B8FEA89FB891C
:1004700080818062CFCFCF93DF93EC01888D88237A
:10048000B9F0AA89BB89E889F9898C9185FD03C0F7
:10049000808186FD0DC00FB607FCF7CF8C9185FFDC
:1004A000F2CF808185FFEDCFCE010E94CC01E9CF54
:1004B000DF91CF910895089508950895FC018481F6
:1004C00095812681378182179307F4F401969583ED
:1004D00084832FB7F89480915D0190915E01A09183
:1004E0005F01B09160012FBF80879187A287B3879A
:1004F00084819581880F991F0280F381E02DE80F98
:10050000F91F80819181089515821482E2CF0895A8
:10051000CF93DF9300D000D000D0CDB7DEB7DC01A1
:100520001296ED91FC9186E0DE01119601900D92FC
:100530008A95E1F729813A814B815C816D817E81C9
:1005400080E090E026960FB6F894DEBF0FBECDBFD8
:10055000DF91CF91089542E050E06AE371E081E6D7
:1005600091E00C944E010C94240C0C94240C0C94EB
:10057000240C0C94240C4F925F926F927F928F9276
:100580009F92AF92BF92CF92DF92EF92FF920F9322
:100590001F93CF93DF93CDB7DEB762970FB6F89472
:1005A000DEBF0FBECDBF8C01CB01BA010E94800817
:1005B0006B017C01F80164817581868197810E94BD
:1005C00080089B01AC01C701B6010E94820A2B0181
:1005D0003C0140E050E0BA01C8010E9488022D872A
:1005E0003E874F87588B698B7A8BF80166857785B4
:1005F000072E000C880B990B0E948208A301920120
:100600000E94BD086B017C0169897A89072E000C64
:10061000880B990B0E9482089B01AC01C701B601AF
:100620000E94160A0E942A0B6B017C0140E050E0F8
:10063000BA01C8010E9488022F83388749875A87E8
:100640006B877C87F80164857585072E000C880B05
:10065000990B0E948208A30192010E94BD084B01E0
:100660005C0169857A85072E000C880B990B0E9426
:1006700082089B01AC01C501B4010E94160A0E94C8
:100680002A0B4B015C0140E050E0BA01C8010E9416
:10069000880229833A834B835C836D837E83F801D0
:1006A00062857385072E000C880B990B0E948208C7
:1006B000A30192010E94BD082B013C0169817A814E
:1006C000072E000C880B990B0E9482089B01AC013D
:1006D000C301B2010E94160A0E942A0B0E94F40A6A
:1006E000F801718B608BC501B4010E94F40AF80116
:1006F000738B628BC701B6010E94F40AF801758BF7
:10070000648B86E07096DE01119601900D928A95B9
:10071000E1F729813A814B815C816D817E8180E0A6
:1007200090E062960FB6F894DEBF0FBECDBFDF91AA
:10073000CF911F910F91FF90EF90DF90CF90BF90DE
:10074000AF909F908F907F906F905F904F900895A3
:100750004F925F926F927F92AF92BF92CF92DF9251
:10076000EF92FF920F931F93CF93DF93CDB7DEB736
:1007700062970FB6F894DEBF0FBECDBF6C01FC01CF
:1007800046805780FFEF4F1A5F0A052C000C660861
:10079000770814141504160417040CF065C00E94A1
:1007A000F307A30192010E947B092B012FB7F89454
:1007B00080915D0190915E01A0915F01B091600117
:1007C0002FBFF60180879187A287B3875582448225
:1007D0004AE0CE0101965C01BC01C2010E944B08B7
:1007E000F50101900020E9F731978F010A191B09E3
:1007F000B8016F5F7F4F90E080E00E94AD0C7C01FC
:100800000097B1F1FC011082B5010E94730DA8019F
:10081000B70181E691E00E944E010E94AB02E11413
:10082000F10419F0C7010E94240C440C551CF60178
:1008300082819381480E591EF201808191816296D6
:100840000FB6F894DEBF0FBECDBFDF91CF911F91E1
:100850000F91FF90EF90DF90CF90BF90AF907F907F
:100860006F905F904F900895412C512C32019ECF94
:1008700010E000E0CCCF1F920F920FB60F92112420
:100880002F933F938F939F93AF93BF9380915D017D
:1008900090915E01A0915F01B091600130915C0187
:1008A00023E0230F2D3758F50196A11DB11D20938C
:1008B0005C0180935D0190935E01A0935F01B09312
:1008C00060018091580190915901A0915A01B09115
:1008D0005B010196A11DB11D8093580190935901B0
:1008E000A0935A01B0935B01BF91AF919F918F91FB
:1008F0003F912F910F900FBE0F901F90189526E8F3
:10090000230F0296A11DB11DD2CF1F920F920FB6D9
:100910000F9211242F933F934F935F936F937F9385
:100920008F939F93AF93BF93EF93FF9381E691E0F3
:100930000E94CC01FF91EF91BF91AF919F918F9158
:100940007F916F915F914F913F912F910F900FBECB
:100950000F901F9018951F920F920FB60F921124AF
:100960002F938F939F93EF93FF93E0917101F091F9
:1009700072018081E0917701F091780182FD1BC0C6
:10098000908180917A018F5F8F7320917B01821714
:1009900041F0E0917A01F0E0EF59FE4F958F80939E
:1009A0007A01FF91EF919F918F912F910F900FBE40
:1009B0000F901F9018958081F4CFCF93DF93CDB720
:1009C000DEB728970FB6F894DEBF0FBECDBF789480
:1009D00084B5826084BD84B5816084BD85B5826044
:1009E00085BD85B5816085BD80916E0081608093F5
:1009F0006E0010928100809181008260809381005E
:100A0000809181008160809381008091800081606D
:100A1000809380008091B10084608093B1008091C8
:100A2000B00081608093B00080917A0084608093F0
:100A30007A0080917A00826080937A0080917A00B7
:100A4000816080937A0080917A00806880937A0038
:100A50001092C100E0917101F091720182E08083F7
:100A6000E0916D01F0916E011082E0916F01F091C3
:100A700070018FEC808310927901E0917501F09103
:100A8000760136E0832E8082E0917301F09174014B
:100A9000808180618083E0917301F0917401808195
:100AA00088608083E0917301F09174018081806897
:100AB0008083E0917301F091740180818F7D808348
:100AC00047E150E06DE371E081E691E00E944E0164
:100AD0000E94AB0286E090E00E94880B7C010FEF41
:100AE00010E0DC0111961C930E9313961C921E923B
:100AF000129715961C921E92149788E090E00E941F
:100B0000880B4C0140E2A42E41E0B42EFC01B182DE
:100B1000A082F382E28258E8452E53E1552E612CE3
:100B2000712C448255826682778286E090E00E9432
:100B3000880B6C01FC0111821082138212821583D2
:100B4000048388E090E00E94880B5C01E0E2F1E021
:100B5000DC011196FC93EE931396DC92CE921297E1
:100B600014964D925D926D927C92179786E090E07C
:100B70000E94880B7C01FC01118300831383028394
:100B80001583048388E090E00E94880B1C01E0E25A
:100B9000F1E0DC011196FC93EE931396FC92EE9239
:100BA000129714964D925D926D927C92179786E003
:100BB00090E00E94880B98878F83FC01918280824D
:100BC000B382A282358224828CE090E00E94880B5E
:100BD0008C01AF80B884DC011396BC92AE92129760
:100BE00015961C921E92149722E030E017963C93C3
:100BF0002E93169718961D921D921D921C921B976C
:100C0000E4E3F1E0ED93FC9388E090E00E94880B30
:100C10005C018BE090E0D50111969C938E938AE065
:100C200090E013969C938E93129789E090E015962E
:100C30009C938E9314978BE00E948700F50182812C
:100C40000E948700D50114968C910E948700F501BF
:100C50001783068386E190E00E94880B8C01DC01FB
:100C60001396FC92EE921297FC01448255826682A2
:100C700077828AE291E091838083D186C086F701F2
:100C8000509686E001900D928A95E1F7D601129672
:100C90008D919C911397F70122813381821B930BD5
:100CA00014962D913C91159744815581241B350B49
:100CB0004D915C9160817181461B570BD8011B9649
:100CC0005C934E931A971D963C932E931C971F96F8
:100CD0009C938E931E9786E090E00E94880B7C0187
:100CE000FC019182808233822282158304838CE00E
:100CF00090E00E94880B8C01DC011396FC92EE922E
:100D0000129715961C921E921497E2E0F0E0179647
:100D1000FC93EE93169718961D921D921D921C92AD
:100D20001B97E4E3F1E0ED93FC9388E090E00E94F0
:100D3000880B7C0186E090E0D70111969C938E93FE
:100D400085E090E013969C938E93129783E090E059
:100D500015969C938E93149786E00E948700F70166
:100D600082810E948700D70114968C910E9487008F
:100D7000F7011783068384E090E00E94880B8C01C2
:100D8000DC011196BC92AE921396FC92EE921297F1
:100D900084E090E00E94880BFC011183008362E0F4
:100DA000862E912C938282829093570180935601D4
:100DB00070E0272E70E0372EE0905601F09057013A
:100DC0008FB7F89440905D0150905E0160905F0194
:100DD000709060018FBF10E000E0D70112968D91F6
:100DE0009C9113970817190708F078C06801CC0C7C
:100DF000DD1CED91FC91EC0DFD1D0190F081E02DCD
:100E0000A681B78114968D919C911597880F991F93
:100E10001296ED91FC911397E80FF91F8081918153
:100E2000FC01448155816681778118968D909D9053
:100E3000AD90BC901B97480D591D6A1D7B1D441534
:100E400055056605770540F4ED91FC9111970190E9
:100E5000F081E02DCD010995D701ED91FC91EC0DCC
:100E6000FD1D0190F081E02D0680F781E02D408589
:100E700051856285738553014201841A950AA60A39
:100E8000B70AB501A401DC01ED91FC910190F0815C
:100E9000E02D099529833A834B835C836D837E83A0
:100EA000F70180819181C80ED91ED601CD90DC90CA
:100EB00069817A81F60180810E94F2006D817E81D4
:100EC000D60112968C910E94F2006B817C81F60112
:100ED00084810E94F2000F5F1F4F7FCF21143104E5
:100EE00009F46ACF0E94B801882309F465CF0E94F3
:100EF000000062CFE1E6F1E01382128288EE93E017
:100F0000A0E0B0E084839583A683B7838EE091E070
:100F10009183808385EC90E09587848784EC90E0D2
:100F20009787868780EC90E0918B808B81EC90E0B6
:100F3000938B828B82EC90E0958B848B86EC90E097
:100F4000978B868B118E128E138E148E08958F922E
:100F50009F92AF92BF92CF92DF92EF92FF92CF9388
:100F6000DF93EC01688179818A819B81611571052C
:100F70008105910521F464E279ED8BE597E02DE19F
:100F800033EF41E050E00E947B0949015A019B0187
:100F9000AC01A7EAB1E40E949A096B017C01ACEEB6
:100FA000B4EFA50194010E94A809C60ED71EE81E41
:100FB000F91EF7FE06C081E0C81AD108E10880E8F2
:100FC000F80AC882D982EA82FB82C701B6019F77FC
:100FD000DF91CF91FF90EF90DF90CF90BF90AF90D7
:100FE0009F908F9008958F929F92AF92BF92CF92D1
:100FF000DF92EF92FF926091000170910101809168
:10100000020190910301611571058105910521F49B
:1010100064E279ED8BE597E02DE133EF41E050E0BC
:101020000E947B0949015A019B01AC01A7EAB1E486
:101030000E949A096B017C01ACEEB4EFA50194010A
:101040000E94A809C60ED71EE81EF91EF7FE06C0AC
:1010500081E0C81AD108E10880E8F80AC0920001CE
:10106000D0920101E0920201F0920301C701B601A2
:101070009F77FF90EF90DF90CF90BF90AF909F90C1
:101080008F90089560930001709301018093020195
:10109000909303010895BB274A3031F4992322F439
:1010A000BDE2909581959F4F0C945708BB27FB019B
:1010B0005527AA27880F991FAA1FA41710F0A41B51
:1010C00083955051B9F7A05DAA3308F0A95DA193AB
:1010D000009779F7B111B1931192CB010C9470087C
:1010E000DC01FC01672F71917723E1F7329704C08F
:1010F0007C916D9370836291AE17BF07C8F308951A
:10110000E89409C097FB3EF49095809570956195A1
:101110007F4F8F4F9F4F9923A9F0F92F96E9BB2757
:101120009395F695879577956795B795F111F8CFD3
:10113000FAF4BB0F11F460FF1BC06F5F7F4F8F4F3E
:101140009F4F16C0882311F096E911C0772321F034
:101150009EE8872F762F05C0662371F096E8862FCC
:1011600070E060E02AF09A95660F771F881FDAF723
:10117000880F9695879597F908950E94D0080C944A
:1011800041090E94330938F00E943A0920F0952362
:1011900011F00C942A090C94300911240C9475094F
:1011A0000E94520970F3959FC1F3950F50E0551FAF
:1011B000629FF001729FBB27F00DB11D639FAA27AC
:1011C000F00DB11DAA1F649F6627B00DA11D661FFB
:1011D000829F2227B00DA11D621F739FB00DA11D1C
:1011E000621F839FA00D611D221F749F3327A00DD6
:1011F000611D231F849F600D211D822F762F6A2F72
:1012000011249F5750409AF0F1F088234AF0EE0FD6
:10121000FF1FBB1F661F771F881F91505040A9F703
:101220009E3F510580F00C942A090C9475095F3F8C
:10123000E4F3983ED4F3869577956795B795F7953F
:10124000E7959F5FC1F7FE2B880F911D96958795B7
:1012500097F9089597F99F6780E870E060E0089536
:101260009FEF80EC089500240A94161617061806BE
:101270000906089500240A9412161306140605069A
:101280000895092E0394000C11F4882352F0BB0F2B
:1012900040F4BF2B11F460FF04C06F5F7F4F8F4F8E
:1012A0009F4F089557FD9058440F551F59F05F3FC9
:1012B00071F04795880F97FB991F61F09F3F79F078
:1012C00087950895121613061406551FF2CF4695FA
:1012D000F1DF08C0161617061806991FF1CF86957C
:1012E0007105610508940895E894BB276627772760
:1012F000CB0197F90895052E97FB1EF400940E94E8
:10130000920957FD07D00E94E40907FC03D04EF470
:101310000C94920950954095309521953F4F4F4F31
:101320005F4F089590958095709561957F4F8F4F91
:101330009F4F08950E94060AA59F900DB49F900D9F
:10134000A49F800D911D11240895B7FF0C949A0954
:101350000E949A09821B930B08952F923F924F92FD
:101360005F926F927F928F929F92AF92BF92CF9235
:10137000DF92EF92FF920F931F93CF93DF93CDB73E
:10138000DEB7CA1BDB0B0FB6F894DEBF0FBECDBFB6
:1013900009942A88398848885F846E847D848C8487
:1013A0009B84AA84B984C884DF80EE80FD800C8190
:1013B0001B81AA81B981CE0FD11D0FB6F894DEBF73
:1013C0000FBECDBFED010895A1E21A2EAA1BBB1BD3
:1013D000FD010DC0AA1FBB1FEE1FFF1FA217B30701
:1013E000E407F50720F0A21BB30BE40BF50B661F17
:1013F000771F881F991F1A9469F7609570958095DB
:1014000090959B01AC01BD01CF010895A29FB00151
:10141000B39FC001A39F700D811D1124911DB29F28
:10142000700D811D1124911D08955058BB27AA27C6
:101430000E942D0A0C9441090E94330938F00E9441
:101440003A0920F039F49F3F19F426F40C9430093E
:101450000EF4E095E7FB0C942A09E92F0E9452094B
:1014600058F3BA17620773078407950720F079F4D9
:10147000A6F50C9474090EF4E0950B2EBA2FA02D4E
:101480000B01B90190010C01CA01A0011124FF2731
:10149000591B99F0593F50F4503E68F11A16F0402C
:1014A000A22F232F342F4427585FF3CF469537952B
:1014B0002795A795F0405395C9F77EF41F16BA0BF0
:1014C000620B730B840BBAF09150A1F0FF0FBB1F9E
:1014D000661F771F881FC2F70EC0BA0F621F731FE7
:1014E000841F48F4879577956795B795F7959E3F44
:1014F00008F0B0CF9395880F08F09927EE0F9795D5
:10150000879508950E94960A0C9441090E943A0911
:1015100058F00E94330940F029F45F3F29F00C9401
:101520002A0951110C9475090C9430090E94520932
:1015300068F39923B1F3552391F3951B550BBB2702
:10154000AA2762177307840738F09F5F5F4F220F47
:10155000331F441FAA1FA9F335D00E2E3AF0E0E83E
:1015600032D091505040E695001CCAF72BD0FE2F88
:1015700029D0660F771F881FBB1F2617370748071C
:10158000AB07B0E809F0BB0B802DBF01FF279358D4
:101590005F4F3AF09E3F510578F00C942A090C9465
:1015A00075095F3FE4F3983ED4F386957795679588
:1015B000B795F7959F5FC9F7880F911D9695879509
:1015C00097F90895E1E0660F771F881FBB1F621728
:1015D00073078407BA0720F0621B730B840BBA0BE6
:1015E000EE1F88F7E09508950E94FB0A6894B111F8
:1015F0000C94750908950E945A0988F09F5798F035
:10160000B92F9927B751B0F0E1F0660F771F881F07
:10161000991F1AF0BA95C9F714C0B13091F00E9421
:101620007409B1E008950C947409672F782F882706
:10163000B85F39F0B93FCCF3869577956795B39548
:10164000D9F73EF490958095709561957F4F8F4FB7
:101650009F4F08950E946A0B90F09F3748F49111B4
:1016600016F00C94750960E070E080E89FEB089537
:1016700026F41B16611D711D811D0C94410B0C94E9
:101680005C0B882371F4772321F09850872B762FF9
:1016900007C0662311F499270DC09051862B70E086
:1016A00060E02AF09A95660F771F881FDAF7880F97
:1016B0009695879597F908959F3F31F0915020F4C2
:1016C000879577956795B795880F911D969587951E
:1016D00097F908950E945A09A0F0BEE7B91788F457
:1016E000BB279F3860F41616B11D672F782F882707
:1016F000985FF7CF869577956795B11D9395963945
:10170000C8F30895EE0FFF1F0590F491E02D0994A2
:101710000F931F93CF93DF938230910510F482E0F3
:1017200090E0E0910002F091010230E020E0B0E0B2
:10173000A0E0309799F42115310509F44AC0281B1F
:10174000390B24303105D8F58A819B8161157105EB
:1017500089F1FB0193838283FE0111C04081518195
:101760000281138148175907E0F04817590799F487
:10177000109761F012960C93129713961C93329661
:10178000CF01DF91CF911F910F9108950093000237
:1017900010930102F4CF2115310551F04217530780
:1017A00038F0A901DB019A01BD01DF01F801C1CFC9
:1017B000EF01F9CF9093010280930002CDCFFE019B
:1017C000E20FF31F819391932250310939832883CB
:1017D000D7CF2091FE013091FF01232B41F42091BE
:1017E0000601309107013093FF012093FE01209103
:1017F0000401309105012115310541F42DB73EB7A3
:101800004091080150910901241B350BE091FE0124
:10181000F091FF01E217F307A0F42E1B3F0B2817EE
:10182000390778F0AC014E5F5F4F2417350748F059
:101830004E0F5F1F5093FF014093FE0181939193E0
:101840009FCFF0E0E0E09CCFCF93DF930097E9F0EB
:10185000FC01329713821282A0910002B091010222
:10186000ED0130E020E01097A1F420813181820F5A
:10187000931F2091FE013091FF012817390709F0CD
:1018800061C0F093FF01E093FE01DF91CF910895D5
:10189000EA01CE17DF07E8F54A815B819E01411519
:1018A0005105B1F7E901FB83EA8349915991C40FCE
:1018B000D51FEC17FD0761F4808191810296840F9A
:1018C000951FE90199838883828193819B838A8311
:1018D000F0E0E0E012968D919C9113970097B9F596
:1018E0002D913C911197CD010296820F931F20916B
:1018F000FE013091FF012817390739F6309751F56D
:101900001092010210920002B093FF01A093FE0119
:10191000BCCFD383C28340815181840F951FC817E8
:10192000D90761F44E5F5F4F88819981480F591F35
:10193000518340838A819B81938382832115310562
:1019400009F0B0CFF0930102E09300029ECFFD01B9
:10195000DC01C0CF13821282D7CFB0E0A0E0E3EB6E
:10196000FCE00C94AF098C01009751F4CB010E946C
:10197000880B8C01C801CDB7DEB7E0E10C94CB0930
:10198000FC01E60FF71F9C0122503109E217F30713
:1019900008F49DC0D901CD91DC911197C617D707E6
:1019A00098F0C530D10530F3CE010497861797071C
:1019B00008F3C61BD70B2297C193D1936D937C93E9
:1019C000CF010E94240CD6CF5B01AC1ABD0A4C019A
:1019D0008C0E9D1EA0910002B0910102512C412C51
:1019E000F12CE12C109731F58091FE019091FF01CF
:1019F0008815990509F05CC04616570608F058C0CE
:101A00008091040190910501009741F48DB79EB734
:101A10004091080150910901841B950BE817F907C3
:101A200008F055C0F093FF01E093FE01F9017183C6
:101A30006083A0CF8D919C91119712966C90129714
:101A400013967C901397A815B90559F56C0142E0DF
:101A5000C40ED11CCA14DB0420F1AC014A195B0985
:101A6000DA011296159780F0628273825183408367
:101A7000D9016D937C93E114F10471F0D7011396B1
:101A8000FC93EE93129776CF22968C0F9D1FF9014F
:101A900091838083F301EFCFF0930102E093000282
:101AA00069CF4816590608F42C017D01D3019ACF5D
:101AB000CB010E94880B7C01009749F0AE01B80170
:101AC0000E946A0DC8010E94240C870153CF10E0C8
:101AD00000E050CFFB01DC0102C001900D924150AB
:101AE0005040D8F70895FB01DC0101900D920020D1
:081AF000E1F70895F894FFCF1F
:101AF8000100000000000202800000000000EE016A
:101B08004E017B013B02AC018A019E0100000000EE
:101B180088025B02B90200000000BB025C02B3024B
:101B280000000000A8038702B7020D0A0053746181
:101B38007274696E67204C45442053636865647508
:061B48006C657221000033
:00000001FF
