:100000000C946F000C9497000C9497000C9497003C
:100010000C9497000C9497000C9497000C94970004
:100020000C9497000C9497000C9497000C949700F4
:100030000C9497000C9497000C9497000C949700E4
:100040000C94CC070C9497000C943C080C94160864
:100050000C9497000C9497000C9497000C949700C4
:100060000C9497000C9497005374617274696E67D6
:10007000204C4544205363686564756C65722100AB
:1000800000000000230026002900000000002400DA
:1000900027002A0000000000250028002B0004048F
:1000A0000404040404040202020202020303030320
:1000B00003030102040810204080010204081020FC
:1000C00001020408102000000008000201000003E3
:1000D000040700000000000000006E086E0D1124EF
:1000E0001FBECFEFD8E0DEBFCDBF11E0A0E0B1E092
:1000F000EAE4F7E202C005900D92A436B107D9F701
:1001000022E0A4E6B1E001C01D92A831B207E1F7F8
:1001100010E0CEE6D0E004C02197FE010E94BC12A0
:10012000CD36D107C9F70E94A0080C9498130C94FF
:100130000000833081F028F4813099F08230A9F0FA
:1001400008958730A9F08830C9F08430B1F48091E7
:1001500080008F7D03C0809180008F778093800026
:10016000089584B58F7784BD089584B58F7DFBCFC6
:100170008091B0008F778093B00008958091B00097
:100180008F7DF9CF1F93CF93DF93282F30E0F901B4
:10019000EA53FF4F8491F901EE54FF4FD491F901D6
:1001A000E256FF4FC491CC23A9F0162F81110E9473
:1001B0009900EC2FF0E0EE0FFF1FEC56FF4FA591DA
:1001C000B4918FB7F894EC91111108C0D095DE234B
:1001D000DC938FBFDF91CF911F910895DE2BF8CF75
:1001E000CF93DF9390E0FC01EE54FF4F24918256B1
:1001F0009F4FFC0184918823D1F090E0880F991FD4
:10020000FC01E657FF4FA591B491FC01EC56FF4F5E
:10021000C591D49161110EC09FB7F8948C91E22FD3
:10022000E0958E238C932881E223E8839FBFDF91A2
:10023000CF9108958FB7F894EC91E22BEC938FBF98
:10024000F6CF1F93CF93DF93182FEB0161E00E944D
:10025000F000209739F460E0812FDF91CF911F915A
:100260000C94C200CF3FD10511F461E0F5CFE12F2E
:10027000F0E0EA53FF4FE491E33031F140F4E13034
:10028000B1F0E230E1F0C038D1057CF7E4CFE730DF
:1002900029F1E83059F1E430B1F7809180008062B3
:1002A00080938000D0938B00C0938A0004C084B5F3
:1002B000806884BDC7BDDF91CF911F91089584B53B
:1002C000806284BDC8BDF7CF809180008068809334
:1002D0008000D0938900C0938800EDCF8091B0005A
:1002E00080688093B000C093B300E5CF8091B000E8
:1002F00080628093B000C093B400DDCF3FB7F89424
:1003000080916D0190916E01A0916F01B09170018B
:1003100026B5A89B05C02F3F19F00196A11DB11D60
:100320003FBFBA2FA92F982F8827BC01CD01620F9C
:10033000711D811D911D42E0660F771F881F991F57
:100340004A95D1F708952FB7F8946091690170919B
:100350006A0180916B0190916C012FBF0895AF925B
:10036000BF92CF92DF92EF92FF920F931F93CF93A2
:10037000DF936C017B018B01040F151FEB015E0104
:10038000AE18BF08C017D10759F06991D601ED9199
:10039000FC910190F081E02DC6010995892B79F738
:1003A000C501DF91CF911F910F91FF90EF90DF90EA
:1003B000CF90BF90AF900895FC01538D448D252FB1
:1003C00030E0842F90E0821B930B541710F0CF96EF
:1003D000089501970895FC01918D828D981761F021
:1003E000A28DAE0FBF2FB11D5D968C91928D9F5F38
:1003F0009F73928F90E008958FEF9FEF08950F9372
:100400001F930E94A3016093790170937A018093F6
:100410007B0190937C0181E791E00E94EB0197FFC3
:100420001DC00E94A3010091790110917A012091D1
:100430007B0130917C01601B710B820B930B00914F
:100440007501109176012091770130917801601744
:10045000710782079307F8F28FEF9FEF1F910F91BB
:100460000895FC01918D828D981731F0828DE80FEF
:10047000F11D858D90E008958FEF9FEF0895FC01A9
:10048000918D228D892F90E0805C9F4F821B910976
:100490008F739927089581E791E00E943F0221E040
:1004A000892B09F420E0822F089580E090E0892BC9
:1004B00029F00E944B0281110C9400000895FC0168
:1004C000A48DA80FB92FB11DA35ABF4F2C91848DB5
:1004D00090E001968F739927848FA689B7892C9312
:1004E000A089B1898C91837080648C93938D848D65
:1004F000981306C00288F389E02D80818F7D808368
:100500000895EF92FF920F931F93CF93DF93EC0127
:1005100081E0888F9B8D8C8D98131AC0E889F989AA
:10052000808185FF15C09FB7F894EE89FF896083AD
:10053000E889F98980818370806480839FBF81E02E
:1005400090E0DF91CF911F910F91FF90EF90089570
:10055000F62E0B8D10E00F5F1F4F0F731127E02E4B
:100560008C8D8E110CC00FB607FCFACFE889F98983
:10057000808185FFF5CFCE010E945F02F1CFEB8D28
:10058000EC0FFD2FF11DE35AFF4FF0829FB7F89457
:100590000B8FEA89FB8980818062CFCFCF93DF9375
:1005A000EC01888D8823B9F0AA89BB89E889F9898B
:1005B0008C9185FD03C0808186FD0DC00FB607FCC0
:1005C000F7CF8C9185FFF2CF808185FFEDCFCE01F3
:1005D0000E945F02E9CFDF91CF910895CF93DF931F
:1005E000EC018C819D812E813F8182179307B4F4A9
:1005F00001969D838C830E94A301688779878A87EF
:100600009B878C819D81880F991FEA81FB81E80F70
:10061000F91F80819181DF91CF9108951D821C8205
:10062000EACF08950895CF93DF9300D000D000D093
:10063000CDB7DEB726E0FC013296DE0111960190BF
:100640000D922A95E1F729813A814B815C816D8178
:100650007E8180E090E026960FB6F894DEBF0FBE54
:10066000CDBFDF91CF9108958F929F92AF92BF92AD
:100670000F931F93CF93DF93CDB7DEB7A1970FB63C
:10068000F894DEBF0FBECDBF19A2423008F44AE095
:100690008E010F5D1F4F842E912CB12CA12CA50132
:1006A00094010E94F610E62FB901CA01EA3044F520
:1006B000E05DD801EE938D01232B242B252B79F7B8
:1006C00090E080E0109769F0FD0101900020E9F7CB
:1006D0003197AF014A1B5B0BBD0181E791E00E949E
:1006E000AF01A1960FB6F894DEBF0FBECDBFDF916C
:1006F000CF911F910F91BF90AF909F908F900895D1
:10070000E95CD7CFCF92DF92EF92FF92CF93DF9346
:100710006B017C016DE281E791E00E948102EC01B6
:1007200066277727CB016C197D098E099F094AE05E
:100730000E9434038C0F9D1FDF91CF91FF90EF90AB
:10074000DF90CF90089542E050E06CE471E081E7E3
:1007500091E00C94AF01FC0180819181009711F030
:100760000C940E0E08950F931F93CF93DF938C017B
:1007700086E291E0D8018D939C93D0E0C0E0F8012F
:1007800082819381268137812C173D079CF09E0141
:10079000220F331F820F931FDC018D919C910097D4
:1007A00039F0DC01ED91FC910480F581E02D099593
:1007B0002196E5CF009731F0DF91CF911F910F91F6
:1007C0000C940E0EDF91CF911F910F910895CF934E
:1007D000DF93EC010E94B303CE01DF91CF910C9423
:1007E0000E0E22E331E0FC01318320830C94B3032D
:1007F000CF93DF93EC010E94F103CE01DF91CF9103
:100800000C940E0E0C940E0E0C940E0E0F931F9360
:10081000CF93DF93EC0188819981009759F02A8169
:100820003B812617370730F081E0DF91CF911F9190
:100830000F9108958B016F5F7F4F0E94C212009746
:1008400059F0998388831B830A832C813D81232B54
:1008500059F7FC011082E8CF80E0E7CFEF92FF92DA
:100860000F931F93CF93DF93EC017B0119821882C2
:100870001B821A821D821C82FB0101900020E9F775
:1008800031978F01061B170BB8010E9406042881BF
:100890003981811113C02115310519F0C9010E9458
:1008A0000E0E198218821D821C821B821A82DF9111
:1008B000CF911F910F91FF90EF9008951D830C83AE
:1008C000B701C901DF91CF911F910F91FF90EF9078
:1008D0000C949113EF92FF920F931F93CF93DF939A
:1008E0006115710541F480E0DF91CF911F910F9167
:1008F000FF90EF90089541155105B1F07B01EC0197
:100900000C811D81040F151FB8010E940604882365
:1009100051F3288139818C819D81B701820F931F0A
:100920000E9491131D830C8381E0DECFEF92FF9232
:100930000F931F93CF93DF93CDB7DEB72D970FB6ED
:10094000F894DEBF0FBECDBF7C01CB01BA012AE017
:100950008E010F5F1F4FA8010E94460FF801019002
:100960000020E9F73197AF01401B510BB801C701D7
:100970000E946A042D960FB6F894DEBF0FBECDBF5D
:10098000DF91CF911F910F91FF90EF900895EF921B
:10099000FF920F931F93CF93DF93CDB7DEB72897C6
:1009A0000FB6F894DEBF0FBECDBF7C01CB014AE08D
:1009B0008E010F5F1F4FB8010E943B0FF80101909D
:1009C0000020E9F73197AF01401B510BB801C70177
:1009D0000E946A0428960FB6F894DEBF0FBECDBF02
:1009E000DF91CF911F910F91FF90EF900895FB0140
:1009F00001900020E9F73197AF01461B570B0C948B
:100A00006A040F931F93CF93DF93EC018B016FE484
:100A100071E00E942E04F80160817181CE010E9474
:100A2000C70461E571E0CE010E94F704F80162811C
:100A30007381CE010E94C70461E571E0CE010E947E
:100A4000F704F80164817581CE010E94C70463E553
:100A500071E0CE010E94F704CE01DF91CF911F918A
:100A60000F910895FB0144815581608171810C943F
:100A70006A04CF92DF92EF92FF920F931F93CF936E
:100A8000DF9300D000D000D0CDB7DEB78C016B0172
:100A900065E571E00E942E04F12CE12CD60116963A
:100AA0008D919C918E159F053CF161E571E0C80127
:100AB0000E94F704C701880F991FD6011296ED9185
:100AC000FC91E80FF91F60817181DB01ED91FC91D0
:100AD0000680F781E02DCE0101960995BE016F5F7A
:100AE0007F4FC8010E943205CE0101960E94AB03E0
:100AF000BFEFEB1AFB0AD2CF63E571E0C8010E9499
:100B0000F704C80126960FB6F894DEBF0FBECDBF1E
:100B1000DF91CF911F910F91FF90EF90DF90CF90D9
:100B20000895CF92DF92EF92FF920F931F93CF938E
:100B3000DF9300D000D000D0CDB7DEB78C016B01C1
:100B400068E571E00E942E04F12CE12CD601169686
:100B50008D919C918E159F053CF161E571E0C80176
:100B60000E94F704C701880F991FD6011296ED91D4
:100B7000FC91E80FF91F60817181DB01ED91FC911F
:100B80000680F781E02DCE0101960995BE016F5FC9
:100B90007F4FC8010E943205CE0101960E94AB032F
:100BA000BFEFEB1AFB0AD2CF63E571E0C8010E94E8
:100BB000F704C80126960FB6F894DEBF0FBECDBF6E
:100BC000DF91CF911F910F91FF90EF90DF90CF9029
:100BD0000895EF92FF920F931F93CF93DF93CDB7BA
:100BE000DEB768970FB6F894DEBF0FBECDBF8C019D
:100BF0007B016FE471E00E942E04F701408551856E
:100C000062857385C8010E94960461E571E0C801A0
:100C10000E94F70486E0F7013296DE0111960190FA
:100C20000D928A95E1F786E0FE013196DE01179676
:100C300001900D928A95E1F786E0FE013796DE017C
:100C40001D9601900D928A95E1F7BE01635F7F4F7B
:100C5000CE0143960E940105BE016D5E7F4FC80123
:100C60000E943205CE0143960E94AB0361E571E01C
:100C7000C8010E94F704B701645F7F4FCE010D9653
:100C80000E940105BE01635F7F4FC8010E943205CB
:100C9000CE010D960E94AB0363E571E0C8010E948E
:100CA000F704C80168960FB6F894DEBF0FBECDBF3B
:100CB000DF91CF911F910F91FF90EF900895EF92E8
:100CC000FF920F931F93CF93DF9300D000D000D0FB
:100CD000CDB7DEB78C017B016FE471E00E942E047A
:100CE000F7014085518562857385C8010E9496048D
:100CF00061E571E0C8010E94F704B7016E5F7F4FA4
:100D0000CE0101960E940105BE016F5F7F4FC801B1
:100D10000E943205CE0101960E94AB0363E571E0AB
:100D2000C8010E94F704C80126960FB6F894DEBFEA
:100D30000FBECDBFDF91CF911F910F91FF90EF902C
:100D40000895CF92DF92EF92FF92CF93DF93EC0161
:100D5000CE80DF808FEFC81AD80A0D2C000CEE0869
:100D6000FF081C141D041E041F0444F50E94E30E1A
:100D7000A70196010E948D106B017C010E94A301C6
:100D8000688779878A879B87DD82CC82F7FE1AC0C5
:100D9000C701B6010E9482030E94A303CC0CDD1C94
:100DA0008A819B81C80ED91EF60180819181DF91D5
:100DB000CF91FF90EF90DF90CF900895C12CD12C70
:100DC0007601DCCF4AE0C701B6010E943403E4CFCC
:100DD0004F925F926F927F928F929F92AF92BF924B
:100DE000CF92DF92EF92FF920F931F93CF93DF93F7
:100DF000CDB7DEB768970FB6F894DEBF0FBECDBF94
:100E00008C01CB01BA010E94940F6B017C01F801A7
:100E100060857185828593850E94920F9B01AC014C
:100E2000C701B6010E9494112B013C0186E0F80134
:100E30003296DE01119601900D928A95E1F7F80144
:100E400066897789072E000C880B990B0E94940FF6
:100E5000A30192010E94CF0F6B017C016D817E8105
:100E6000072E000C880B990B0E94940F9B01AC017C
:100E7000C701B6010E9428110E943C126B017C013F
:100E800086E0F8013296DE01179601900D928A9560
:100E9000E1F7F80164897589072E000C880B990B1E
:100EA0000E94940FA30192010E94CF0F4B015C019D
:100EB00069857A85072E000C880B990B0E94940F88
:100EC0009B01AC01C501B4010E9428110E943C1293
:100ED0004B015C0186E0F8013296DE011D9601901F
:100EE0000D928A95E1F7F80162897389072E000C4B
:100EF000880B990B0E94940FA30192010E94CF0FBF
:100F00002B013C016D857E85072E000C880B990B0B
:100F10000E94940F9B01AC01C301B2010E942811F1
:100F20000E943C120E940612F801718F608FC50169
:100F3000B4010E940612F801738F628FC701B601D7
:100F40000E940612F801758F648F86E07896DE01A4
:100F5000539601900D928A95E1F72B893C894D8932
:100F60005E896F89788D80E090E068960FB6F8947E
:100F7000DEBF0FBECDBFDF91CF911F910F91FF90CC
:100F8000EF90DF90CF90BF90AF909F908F907F9029
:100F90006F905F904F9008951F920F920FB60F922F
:100FA00011242F933F938F939F93AF93BF9380917F
:100FB000690190916A01A0916B01B0916C0130912F
:100FC000680123E0230F2D3758F50196A11DB11DAF
:100FD000209368018093690190936A01A0936B014B
:100FE000B0936C0180916D0190916E01A0916F01A1
:100FF000B09170010196A11DB11D80936D01909378
:101000006E01A0936F01B0937001BF91AF919F915A
:101010008F913F912F910F900FBE0F901F901895B9
:1010200026E8230F0296A11DB11DD2CF1F920F9269
:101030000FB60F9211242F933F934F935F936F93AB
:101040007F938F939F93AF93BF93EF93FF9381E72A
:1010500091E00E945F02FF91EF91BF91AF919F914C
:101060008F917F916F915F914F913F912F910F9051
:101070000FBE0F901F9018951F920F920FB60F92F0
:1010800011242F938F939F93EF93FF93E09181010E
:10109000F09182018081E0918701F091880182FDC9
:1010A0001BC0908180918A018F5F8F7320918B018B
:1010B000821741F0E0918A01F0E0EF58FE4F958FE2
:1010C00080938A01FF91EF919F918F912F910F90C3
:1010D0000FBE0F901F9018958081F4CFE1E7F1E0EB
:1010E0001382128288EE93E0A0E0B0E084839583BF
:1010F000A683B7838EE391E09183808385EC90E0B3
:101100009587848784EC90E09787868780EC90E0D1
:10111000918B808B81EC90E0938B828B82EC90E0C2
:10112000958B848B86EC90E0978B868B118E128E3C
:10113000138E148E6EE471E08EE092E00C942E0417
:10114000CF93DF93CDB7DEB766970FB6F894DEBFC7
:101150000FBECDBF789484B5826084BD84B58160B4
:1011600084BD85B5826085BD85B5816085BD809172
:101170006E00816080936E001092810080918100EA
:1011800082608093810080918100816080938100E2
:10119000809180008160809380008091B1008460A4
:1011A0008093B1008091B00081608093B000809105
:1011B0007A00846080937A0080917A0082608093C4
:1011C0007A0080917A00816080937A0080917A0021
:1011D000806880937A001092C100E0918101F091C3
:1011E000820182E08083E0917D01F0917E01108296
:1011F000E0917F01F09180018FEC80831092890152
:10120000E0918501F091860186E08083E091830181
:10121000F0918401808180618083E0918301F0916D
:101220008401808188608083E0918301F091840152
:10123000808180688083E0918301F09184018081C6
:101240008F7D808308E610E0F8016491662341F009
:1012500081E791E00E9481020F5F1F4F892BA1F768
:101260000E94A3038CE090E00E94720D5C01AEE04E
:101270008A2EA1E09A2EDC0111969C928E920FEF9D
:1012800010E013961C930E93129715961C921E92C3
:10129000149717961C921E921697B8E84B2EB3E13E
:1012A0005B2E612C712CFC01408651866286738610
:1012B0008CE090E00E94720D6C01DC0111969C9212
:1012C0008E9213961C921E92129715961C921E9245
:1012D000149717961C930E931697FC01408651861F
:1012E000628673868CE090E00E94720D7C01DC01C6
:1012F00011969C928E9213961C930E9312971596AC
:101300001C930E93149717961C930E931697FC013B
:10131000408651866286738686E090E00E94720D58
:101320001C01DC011196BC92AE921396DC92CE9217
:1013300012971596FC92EE9214978CE090E00E9422
:10134000720D7C01FC01338222821582148222E01C
:1013500030E037832683DC011086118612861386DF
:10136000E2E3F1E0ED93FC9382E090E00E94720DE5
:101370006C01DC01ED92FC928CE090E00E94720D19
:101380007C018BE090E0F7019183808389E090E01D
:10139000938382838AE090E095838483D782C68298
:1013A000118610861386128661E08BE00E94F000A1
:1013B00061E0D70112968C910E94F00061E0F70184
:1013C00084810E94F0008CE090E00E94720D5C012C
:1013D000DC0111969C928E9213961C930E93129799
:1013E00015961C921E92149717961C921E92169791
:1013F000FC0140865186628673868CE090E00E94F4
:10140000720D1C01DC0111969C928E9213961C9316
:101410000E93129715961C930E93149717961C9380
:101420000E931697FC0140865186628673868EE184
:1014300090E00E94720D6C01DC0113961C930E93D8
:10144000129715961C930E93149717961C930E9350
:101450001697FC0140865186628673868AE191E088
:10146000918380831586148617861686118B008BD0
:10147000118F008F138F028F158F048F81E09FEFE4
:10148000938B828B958B848B178A168A86E090E0EB
:101490000E94720D8C01DC011196BC92AE921396E3
:1014A0003C922E9212971596DC92CE9214978CE075
:1014B00090E00E94720D6C01FC011383028315827F
:1014C000148222E030E037832683DC011086118607
:1014D00012861386E2E3F1E0ED93FC9382E090E064
:1014E0000E94720D5C01DC01CD92DC928CE090E0F8
:1014F0000E94720D8C0186E090E0F8019183808358
:1015000083E090E09383828385E090E095838483F9
:10151000B782A682118610861386128661E086E065
:101520000E94F00061E0D80112968C910E94F000B8
:1015300061E0F80184810E94F00084E090E00E9464
:10154000720D6C01DC011196FC92EE9213961C93C5
:101550000E93129784E090E00E94720DFC01D182FC
:10156000C08222E030E0338322839093670180932E
:10157000660181E190E00E94720D8C018CE090E0A8
:10158000D80111969C938E9313961C921E921297DB
:1015900015961C921E9214970E94A301F80166836F
:1015A00077838087918781E0828760E08CE00E946A
:1015B000F000D8011C96DC92CE921B97E2E0F0E09E
:1015C0001E96FC93EE931D9750961C921E921F97A9
:1015D000109365010093640122242A94322C8E0119
:1015E0000F5F1F4F80E0882E80E0982EE09066010C
:1015F000F0906701E114F10409F40DC10E94A30108
:101600002B013C01D12CC12CD70112968D919C91BC
:101610001397C816D9060CF0A0C05601AA0CBB1C23
:10162000ED91FC91EA0DFB1DA081B18118968D9181
:101630009C911997880F991F1696ED91FC91E80FD0
:10164000F91FA081B18114968D919C911597880FF7
:10165000991F1296ED91FC911397E80FF91F2081C5
:1016600031813E8B2D8BF9014085518562857385D3
:10167000498B5A8B6B8B7C8B18962D913D914D919C
:101680005C911B9769897A898B899C89620F731F8A
:10169000841F951F641575058605970550F4ED9117
:1016A000FC9111970190F081E02DCD0109959E8B61
:1016B0008D8BD701ED91FC91EA0DFB1DA081B181CD
:1016C00018962D913C911997220F331F1696ED9184
:1016D000FC91E20FF31F0190F081E02D2085318510
:1016E00042855385C301B201621B730B840B950BBA
:1016F0006D877E878F87988BAD89BE89ED91FC9130
:1017000011970190F081E02DAB01BC01CD0109954D
:1017100029833A834B835C836D837E83F7018081C9
:101720009181A80EB91ED501AD90BC9069817A81D6
:10173000F50180810E9421016D817E81D501129683
:101740008C910E9421016B817C81F50184810E9432
:101750002101FFEFCF1ADF0A57CFE0906401F0902C
:101760006501D7012D913C913327F901EA53FF4FD1
:101770008491F901EE54FF4FD490F901E256FF4FE6
:10178000C490CC2009F462C081110E949900EC2D14
:10179000F0E0EE0FFF1FE058FF4FA591B491EC91E0
:1017A000DE2209F453C0F7018285882331F01286C6
:1017B00082819381019693838283F701848195814D
:1017C00015821482009739F12785308937FD6CC066
:1017D000220F331F43855485240F351FD901ED9106
:1017E000FC91408551859C01240F351F62857385CE
:1017F000621773070CF055C09B01241B350B821B2D
:10180000930B01976F5F7F4F0E949412918780879F
:10181000F701308A278681E791E00E943F02892BF9
:1018200009F47DC06EE471E0C8010E942E040E949C
:10183000FF0197FD47C08F83188641E050E0BE014D
:10184000695F7F4FC8010E946A04F1CF0E94A30123
:10185000AB01BC01D7011A968C91811107C0F70129
:10186000468357836087718721E02287F70186814D
:101870009781A085B18588519C4FAF4FBF4F84178A
:101880009507A607B70708F098CF82819381009744
:1018900011F095838483D70113961C921E921297A0
:1018A0008CCF31872087B4CF258536852817390717
:1018B0002CF421503109308B2787ADCF0197908BC5
:1018C0008787A9CFB8018EE092E00E943205C80157
:1018D0000E94AB030E947E016B017C013AE0432E23
:1018E000512C612C712C0E947E016C197D098E098E
:1018F0009F09683E734081059105A8F3F1E04F1AF6
:1019000051086108710828EEC20E23E0D21EE11CC6
:10191000F11C411451046104710429F77CCF8091BA
:10192000120290911302892B09F4A1C0C0900E02FB
:10193000D0900F02D6018C91882309F498C06BE5F2
:1019400071E0C6010E9488137C01892B09F09BC0BD
:10195000E0916601F09167010190F081E02DC08077
:10196000D1806FE471E0CE0107960E942E04F6014B
:1019700060817181CE0107960E94C70461E571E024
:10198000CE0107960E94F704D60114966D917C91C2
:10199000CE0107960E94C70461E571E0CE0107966B
:1019A0000E94F704F60162817381CE0107960E94BE
:1019B000C704D6011A968D919C918E159F052CF126
:1019C00061E571E0CE0107960E94F704C701880F18
:1019D000991FD6011696ED91FC91E80FF91F6081D1
:1019E0007181DB01ED91FC910680F781E02DC8014A
:1019F0000995B801CE0107960E943205C8010E94E0
:101A0000AB03BFEFEB1AFB0AD4CF63E571E0CE0165
:101A100007960E94F7044B855C856F81788581E786
:101A200091E00E94AF010E94A303CE0107960E949D
:101A3000AB0370E060E08EE092E00E94060420912B
:101A40000E0230910F0281113FC02115310519F0AE
:101A5000C9010E940E0E10920F0210920E021092F7
:101A600013021092120210921102109210028114AD
:101A7000910409F4BBCD0E944B02882309F4B6CD32
:101A80000E940000B3CD6FE571E0C6010E9488138B
:101A9000892B79F68091140290911502009711F428
:101AA00088E192E0B801681B790B072E000C880BC7
:101AB000990B97FF05C00E9482030E94A303B9CF30
:101AC0004AE00E943403F9CF1092130210921202DE
:101AD0006EE471E0C9010E949113C9CF8EE092E0DB
:101AE0000C94AB030F931F93CF93DF938230910538
:101AF00010F482E090E0E0911602F091170230E0DD
:101B000020E0B0E0A0E0309799F42115310509F408
:101B10004AC0281B390B24303105D8F58A819B81B6
:101B20006115710589F1FB0193838283FE0111C068
:101B3000408151810281138148175907E0F048170D
:101B4000590799F4109761F012960C931297139617
:101B50001C933296CF01DF91CF911F910F91089581
:101B60000093160210931702F4CF2115310551F09E
:101B70004217530738F0A901DB019A01BD01DF01CB
:101B8000F801C1CFEF01F9CF9093170280931602AD
:101B9000CDCFFE01E20FF31F8193919322503109C3
:101BA00039832883D7CF2091140230911502232B3B
:101BB00041F42091020130910301309315022093EA
:101BC000140220910001309101012115310541F4E9
:101BD0002DB73EB74091040150910501241B350BF0
:101BE000E0911402F0911502E217F307A0F42E1B06
:101BF0003F0B2817390778F0AC014E5F5F4F241771
:101C0000350748F04E0F5F1F5093150240931402A2
:101C1000819391939FCFF0E0E0E09CCFCF93DF934F
:101C20000097E9F0FC01329713821282A09116020C
:101C3000B0911702ED0130E020E01097A1F420816F
:101C40003181820F931F20911402309115022817C1
:101C5000390709F061C0F0931502E0931402DF9197
:101C6000CF910895EA01CE17DF07E8F54A815B813D
:101C70009E0141155105B1F7E901FB83EA834991C2
:101C80005991C40FD51FEC17FD0761F48081918134
:101C90000296840F951FE90199838883828193813D
:101CA0009B838A83F0E0E0E012968D919C911397DC
:101CB0000097B9F52D913C911197CD010296820FB5
:101CC000931F20911402309115022817390739F615
:101CD000309751F51092170210921602B093150228
:101CE000A0931402BCCFD383C28340815181840F5F
:101CF000951FC817D90761F44E5F5F4F888199819E
:101D0000480F591F518340838A819B81938382832B
:101D10002115310509F0B0CFF0931702E0931602B8
:101D20009ECFFD01DC01C0CF13821282D7CF8F92EC
:101D30009F92AF92BF92CF92DF92EF92FF92CF939A
:101D4000DF93EC01688179818A819B81611571053E
:101D50008105910521F464E279ED8BE597E02DE1B1
:101D600033EF41E050E00E948D1049015A019B0180
:101D7000AC01A7EAB1E40E94AC106B017C01ACEEAF
:101D8000B4EFA50194010E94BA10C60ED71EE81E3A
:101D9000F91EF7FE06C081E0C81AD108E10880E804
:101DA000F80AC882D982EA82FB82C701B6019F770E
:101DB000DF91CF91FF90EF90DF90CF90BF90AF90E9
:101DC0009F908F9008958F929F92AF92BF92CF92E3
:101DD000DF92EF92FF92609106017091070180916E
:101DE000080190910901611571058105910521F4A2
:101DF00064E279ED8BE597E02DE133EF41E050E0CF
:101E00000E948D1049015A019B01AC01A7EAB1E47F
:101E10000E94AC106B017C01ACEEB4EFA501940103
:101E20000E94BA10C60ED71EE81EF91EF7FE06C0A5
:101E300081E0C81AD108E10880E8F80AC0920601DA
:101E4000D0920701E0920801F0920901C701B601A2
:101E50009F77FF90EF90DF90CF90BF90AF909F90D3
:101E60008F90089560930601709307018093080195
:101E7000909309010895BB274A3031F4992322F445
:101E8000BDE2909581959F4F0C94690FBB27FA0195
:101E9000A62F6217710581059105330B30FB66F0A3
:101EA000AA27660F771F881F991FAA1FA21710F075
:101EB000A21B63953850A9F7A05DAA3308F0A95D6D
:101EC000A19336F7B111B1931082CA010C94820F1D
:101ED000BB27FB015527AA27880F991FAA1FA41704
:101EE00010F0A41B83955051B9F7A05DAA3308F0F8
:101EF000A95DA193009779F7B111B1931192CB012C
:101F00000C94820FDC01FC01672F71917723E1F7BC
:101F1000329704C07C916D9370836291AE17BF07B6
:101F2000C8F30895E89409C097FB3EF49095809516
:101F3000709561957F4F8F4F9F4F9923A9F0F92F8F
:101F400096E9BB279395F695879577956795B7950D
:101F5000F111F8CFFAF4BB0F11F460FF1BC06F5FF3
:101F60007F4F8F4F9F4F16C0882311F096E911C005
:101F7000772321F09EE8872F762F05C0662371F026
:101F800096E8862F70E060E02AF09A95660F771F3A
:101F9000881FDAF7880F9695879597F908950E941C
:101FA000E20F0C9453100E94451038F00E944C1020
:101FB00020F0952311F00C943C100C944210112445
:101FC0000C9487100E94641070F3959FC1F3950FD5
:101FD00050E0551F629FF001729FBB27F00DB11DAD
:101FE000639FAA27F00DB11DAA1F649F6627B00D3D
:101FF000A11D661F829F2227B00DA11D621F739F26
:10200000B00DA11D621F839FA00D611D221F749F33
:102010003327A00D611D231F849F600D211D822F7A
:10202000762F6A2F11249F5750409AF0F1F08823A1
:102030004AF0EE0FFF1FBB1F661F771F881F9150CE
:102040005040A9F79E3F510580F00C943C100C9431
:1020500087105F3FE4F3983ED4F3869577956795B4
:10206000B795F795E7959F5FC1F7FE2B880F911DF8
:102070009695879597F9089597F99F6780E870E09E
:1020800060E008959FEF80EC089500240A941616EE
:10209000170618060906089500240A941216130656
:1020A000140605060895092E0394000C11F48823E4
:1020B00052F0BB0F40F4BF2B11F460FF04C06F5F00
:1020C0007F4F8F4F9F4F089557FD9058440F551FD6
:1020D00059F05F3F71F04795880F97FB991F61F0AA
:1020E0009F3F79F087950895121613061406551F21
:1020F000F2CF4695F1DF08C0161617061806991F8D
:10210000F1CF86957105610508940895E894BB2781
:1021100066277727CB0197F90895052E97FB1EF4C4
:1021200000940E94A41057FD07D00E94F61007FCEF
:1021300003D04EF40C94A410509540953095219501
:102140003F4F4F4F5F4F08959095809570956195E3
:102150007F4F8F4F9F4F08950E941811A59F900D9C
:10216000B49F900DA49F800D911D11240895B7FF79
:102170000C94AC100E94AC10821B930B08952F920C
:102180003F924F925F926F927F928F929F92AF9207
:10219000BF92CF92DF92EF92FF920F931F93CF9354
:1021A000DF93CDB7DEB7CA1BDB0B0FB6F894DEBFEB
:1021B0000FBECDBF09942A88398848885F846E8411
:1021C0007D848C849B84AA84B984C884DF80EE805B
:1021D000FD800C811B81AA81B981CE0FD11D0FB664
:1021E000F894DEBF0FBECDBFED010895A1E21A2E17
:1021F000AA1BBB1BFD010DC0AA1FBB1FEE1FFF1FAB
:10220000A217B307E407F50720F0A21BB30BE40BFA
:10221000F50B661F771F881F991F1A9469F7609541
:102220007095809590959B01AC01BD01CF010895FB
:10223000A29FB001B39FC001A39F700D811D112407
:10224000911DB29F700D811D1124911D089550584C
:10225000BB27AA270E943F110C9453100E944510DF
:1022600038F00E944C1020F039F49F3F19F426F406
:102270000C9442100EF4E095E7FB0C943C10E92F0F
:102280000E94641058F3BA17620773078407950712
:1022900020F079F4A6F50C9486100EF4E0950B2E40
:1022A000BA2FA02D0B01B90190010C01CA01A001A8
:1022B0001124FF27591B99F0593F50F4503E68F103
:1022C0001A16F040A22F232F342F4427585FF3CF44
:1022D000469537952795A795F0405395C9F77EF415
:1022E0001F16BA0B620B730B840BBAF09150A1F05E
:1022F000FF0FBB1F661F771F881FC2F70EC0BA0FE4
:10230000621F731F841F48F4879577956795B7956B
:10231000F7959E3F08F0B0CF9395880F08F0992766
:10232000EE0F9795879508950E94A8110C9453106D
:102330000E944C1058F00E94451040F029F45F3F75
:1023400029F00C943C1051110C9487100C944210FD
:102350000E94641068F39923B1F3552391F3951B00
:10236000550BBB27AA2762177307840738F09F5FB6
:102370005F4F220F331F441FAA1FA9F335D00E2E23
:102380003AF0E0E832D091505040E695001CCAF790
:102390002BD0FE2F29D0660F771F881FBB1F261753
:1023A00037074807AB07B0E809F0BB0B802DBF012A
:1023B000FF2793585F4F3AF09E3F510578F00C94F9
:1023C0003C100C9487105F3FE4F3983ED4F386955D
:1023D00077956795B795F7959F5FC9F7880F911D1A
:1023E0009695879597F90895E1E0660F771F881F06
:1023F000BB1F621773078407BA0720F0621B730BB9
:10240000840BBA0BEE1F88F7E09508950E940D1219
:102410006894B1110C94871008950E946C1088F094
:102420009F5798F0B92F9927B751B0F0E1F0660F98
:10243000771F881F991F1AF0BA95C9F714C0B130D9
:1024400091F00E948610B1E008950C948610672FD9
:10245000782F8827B85F39F0B93FCCF38695779508
:102460006795B395D9F73EF49095809570956195F1
:102470007F4F8F4F9F4F08950E947C1290F09F379F
:1024800048F4911116F00C94871060E070E080E839
:102490009FEB089526F41B16611D711D811D0C9480
:1024A00053120C946E12882371F4772321F0985004
:1024B000872B762F07C0662311F499270DC0905102
:1024C000862B70E060E02AF09A95660F771F881FD0
:1024D000DAF7880F9695879597F908959F3F31F021
:1024E000915020F4879577956795B795880F911D42
:1024F0009695879597F908950E946C10A0F0BEE715
:10250000B91788F4BB279F3860F41616B11D672FE2
:10251000782F8827985FF7CF869577956795B11DB7
:1025200093959639C8F3089597FB072E16F40094F7
:1025300007D077FD09D00E94A81207FC05D03EF411
:10254000909581959F4F0895709561957F4F08955F
:10255000AA1BBB1B51E107C0AA1FBB1FA617B707C9
:1025600010F0A61BB70B881F991F5A95A9F78095E5
:102570009095BC01CD010895EE0FFF1F0590F491D9
:10258000E02D0994B0E0A0E0E8ECF2E10C94C11079
:102590008C01009751F4CB010E94720D8C01C8018F
:1025A000CDB7DEB7E0E10C94DD10FC01E60FF71FBC
:1025B0009C0122503109E217F30708F49DC0D901AC
:1025C000CD91DC911197C617D70798F0C530D1058A
:1025D00030F3CE0104978617970708F3C61BD70B75
:1025E0002297C193D1936D937C93CF010E940E0EDD
:1025F000D6CF5B01AC1ABD0A4C018C0E9D1EA0917A
:102600001602B0911702512C412CF12CE12C10979D
:1026100031F580911402909115028815990509F001
:102620005CC04616570608F058C080910001909192
:102630000101009741F48DB79EB74091040150917C
:102640000501841B950BE817F90708F055C0F093B6
:102650001502E0931402F90171836083A0CF8D917C
:102660009C91119712966C90129713967C901397E9
:10267000A815B90559F56C0142E0C40ED11CCA1465
:10268000DB0420F1AC014A195B09DA0112961597B7
:1026900080F06282738251834083D9016D937C9371
:1026A000E114F10471F0D7011396FC93EE931297A5
:1026B00076CF22968C0F9D1FF90191838083F301C1
:1026C000EFCFF0931702E093160269CF4816590630
:1026D00008F42C017D01D3019ACFCB010E94720D29
:1026E0007C01009749F0AE01B8010E947F13C80138
:1026F0000E940E0E870153CF10E000E050CFFB0187
:10270000DC0102C001900D9241505040D8F708956D
:10271000FB01DC018D91019080190110D9F3990B17
:102720000895FB01DC0101900D920020E1F708956E
:1027300010E0CEE6D0E004C0FE010E94BC1221965B
:0A274000CF36D107C9F7F894FFCF98
:10274A0000001802800001000000000000001303CE
:10275A00110304045F0600000000E80612030204E5
:10276A00E90500000000EE02B303E70339050000A3
:10277A000000A106F103F8039105000000008102A0
:10278A00AF01DC01CE023F02EB0131020D0A005B10
:10279A00002C005D005B30005B3100534552005253
:0427AA00414D00009D
:00000001FF
