:100000000C946F000C9497000C9497000C9497003C
:100010000C9497000C9497000C9497000C94970004
:100020000C9497000C9497000C9497000C949700F4
:100030000C9497000C9497000C9497000C949700E4
:100040000C949F0E0C9497000C940F0F0C94E90ED7
:100050000C9497000C9497000C9497000C949700C4
:100060000C9497000C9497005374617274696E67D6
:10007000204C4544205363686564756C65722100AB
:1000800000000000230026002900000000002400DA
:1000900027002A0000000000250028002B0004048F
:1000A0000404040404040202020202020303030320
:1000B00003030102040810204080010204081020FC
:1000C00001020408102000000008000201000003E3
:1000D00004070000000000000000410F311411244B
:1000E0001FBECFEFD8E0DEBFCDBF11E0A0E0B1E092
:1000F000E8E6F5E302C005900D92A838B107D9F7FC
:1001000022E0A8E8B1E001C01D92AE33B207E1F7EA
:1001100010E0CEE6D0E004C02197FE010E94BB199A
:10012000CD36D107C9F70E94730F0C94A71A0C940F
:100130000000833081F028F4813099F08230A9F0FA
:1001400008958730A9F08830C9F08430B1F48091E7
:1001500080008F7D03C0809180008F778093800026
:10016000089584B58F7784BD089584B58F7DFBCFC6
:100170008091B0008F778093B00008958091B00097
:100180008F7DF9CF1F93CF93DF93282F30E0F901B4
:10019000EA53FF4F8491F901EE54FF4FD491F901D6
:1001A000E256FF4FC491CC23A9F0162F81110E9473
:1001B0009900EC2FF0E0EE0FFF1FEC56FF4FA591DA
:1001C000B4918FB7F894EC91111108C0D095DE234B
:1001D000DC938FBFDF91CF911F910895DE2BF8CF75
:1001E000CF93DF9390E0FC01EE54FF4F24918256B1
:1001F0009F4FFC0184918823D1F090E0880F991FD4
:10020000FC01E657FF4FA591B491FC01EC56FF4F5E
:10021000C591D49161110EC09FB7F8948C91E22FD3
:10022000E0958E238C932881E223E8839FBFDF91A2
:10023000CF9108958FB7F894EC91E22BEC938FBF98
:10024000F6CF1F93CF93DF93182FEB0161E00E944D
:10025000F000209739F460E0812FDF91CF911F915A
:100260000C94C200CF3FD10511F461E0F5CFE12F2E
:10027000F0E0EA53FF4FE491E33031F140F4E13034
:10028000B1F0E230E1F0C038D1057CF7E4CFE730DF
:1002900029F1E83059F1E430B1F7809180008062B3
:1002A00080938000D0938B00C0938A0004C084B5F3
:1002B000806884BDC7BDDF91CF911F91089584B53B
:1002C000806284BDC8BDF7CF809180008068809334
:1002D0008000D0938900C0938800EDCF8091B0005A
:1002E00080688093B000C093B300E5CF8091B000E8
:1002F00080628093B000C093B400DDCF3FB7F89424
:100300008091930190919401A0919501B0919601F3
:1003100026B5A89B05C02F3F19F00196A11DB11D60
:100320003FBFBA2FA92F982F8827BC01CD01620F9C
:10033000711D811D911D42E0660F771F881F991F57
:100340004A95D1F708952FB7F89460918F01709175
:10035000900180919101909192012FBF089508958D
:100360000895AF92BF92CF92DF92EF92FF920F93D8
:100370001F93CF93DF936C017B018B01040F151F3B
:10038000EB015E01AE18BF08C017D10759F06991A3
:10039000D601ED91FC910190F081E02DC601099507
:1003A000892B79F7C501DF91CF911F910F91FF90B4
:1003B000EF90DF90CF90BF90AF900895FC01538DE8
:1003C000448D252F30E0842F90E0821B930B54172F
:1003D00010F0CF96089501970895FC01918D828DBC
:1003E000981761F0A28DAE0FBF2FB11D5D968C9155
:1003F000928D9F5F9F73928F90E008958FEF9FEF94
:1004000008950F931F930E94A30160939F0170931F
:10041000A0018093A1019093A20187E991E00E943D
:10042000ED0197FF1DC00E94A30100919F01109153
:10043000A0012091A1013091A201601B710B820BE0
:10044000930B00919B0110919C0120919D01309193
:100450009E016017710782079307F8F28FEF9FEFF5
:100460001F910F910895FC01918D828D981731F0A5
:10047000828DE80FF11D858D90E008958FEF9FEF3D
:100480000895FC01918D228D892F90E0805C9F4F13
:10049000821B91098F739927089587E991E00E9443
:1004A000410221E0892B09F420E0822F089580E0A9
:1004B00090E0892B29F00E944D0281110C940000DC
:1004C0000895FC01A48DA80FB92FB11DA35ABF4FE9
:1004D0002C91848D90E001968F739927848FA68943
:1004E000B7892C93A089B1898C91837080648C9397
:1004F000938D848D981306C00288F389E02D808146
:100500008F7D80830895EF92FF920F931F93CF9377
:10051000DF93EC0181E0888F9B8D8C8D98131AC03E
:10052000E889F989808185FF15C09FB7F894EE8925
:10053000FF896083E889F989808183708064808382
:100540009FBF81E090E0DF91CF911F910F91FF90CD
:10055000EF900895F62E0B8D10E00F5F1F4F0F7375
:100560001127E02E8C8D8E110CC00FB607FCFACF30
:10057000E889F989808185FFF5CFCE010E9461026B
:10058000F1CFEB8DEC0FFD2FF11DE35AFF4FF08201
:100590009FB7F8940B8FEA89FB8980818062CFCF67
:1005A000CF93DF93EC01888D8823B9F0AA89BB89AA
:1005B000E889F9898C9185FD03C0808186FD0DC095
:1005C0000FB607FCF7CF8C9185FFF2CF808185FFB6
:1005D000EDCFCE010E946102E9CFDF91CF91089566
:1005E000E0918C01F0918D01DC0114962D913C91EC
:1005F000159712968D919C919183808333832283EA
:10060000E0918A01F0918B01948783873687258753
:10061000108A178608950895CF93DF93EC018C819B
:100620009D812E813F8182179307B4F401969D83AB
:100630008C830E94A301688779878A879B878C8136
:100640009D81880F991FEA81FB81E80FF91F808146
:100650009181DF91CF9108951D821C82EACF089588
:100660000895CF93DF9300D000D000D0CDB7DEB790
:1006700026E0FC013296DE01119601900D922A953A
:10068000E1F729813A814B815C816D817E8180E037
:1006900090E026960FB6F894DEBF0FBECDBFDF9177
:1006A000CF910895EF92FF920F931F93CF93DF9313
:1006B000EC01862F688379833B832A835D834C8397
:1006C0001F830E831986188691E0E91AF108FB86CC
:1006D000EA8661E00E94F00061E08A810E94F000F9
:1006E00061E08C81DF91CF911F910F91FF90EF908E
:1006F0000C94F0008F929F92AF92BF920F931F9332
:10070000CF93DF93CDB7DEB7A1970FB6F894DEBFD6
:100710000FBECDBF19A2423008F44AE08E010F5D32
:100720001F4F842E912CB12CA12CA50194010E9465
:10073000F517E62FB901CA01EA3044F5E05DD801AA
:10074000EE938D01232B242B252B79F790E080E06D
:10075000109769F0FD0101900020E9F73197AF0192
:100760004A1B5B0BBD0187E991E00E94B101A19694
:100770000FB6F894DEBF0FBECDBFDF91CF911F91B2
:100780000F91BF90AF909F908F900895E95CD7CF65
:1007900042E050E068E671E087E991E00C94B10135
:1007A0000C94D114FC0180819181009711F00C947C
:1007B000D11408950C94D1140F931F93CF93DF930A
:1007C0008C0182E391E0D8018D939C93D0E0C0E04E
:1007D000F80182819381268137812C173D079CF097
:1007E0009E01220F331F820F931FDC018D919C917C
:1007F000009739F0DC01ED91FC910480F581E02D4A
:1008000009952196E5CF009731F0DF91CF911F91A7
:100810000F910C94D114DF91CF911F910F910895F6
:10082000CF93DF93EC010E94DC03CE01DF91CF91E7
:100830000C94D1142AE131E0FC01318320830C9423
:10084000DC03CF93DF93EC010E941A04CE01DF9109
:10085000CF910C94D1140C94D1140C94D11482E047
:1008600090E00E9435142EE331E0FC0131832083B7
:1008700008952F923F924F925F926F927F928F9244
:100880009F92AF92BF92CF92DF92EF92FF920F931F
:100890001F93CF93DF9300D01F92CDB7DEB75C01DB
:1008A000FC01C680D78081E090E00E9435149B83D4
:1008B0008A835C2C4D2C10E000E088248394912CDA
:1008C000F1E0F983F501E680F780828593858E1546
:1008D0009F050CF48CC084819581E816F90608F018
:1008E000A9C080819181009709F4A4C08E0D9F1D3D
:1008F000FC0180818B35C9F53801FFEF6F1A7F0A43
:1009000068147904F4F0880C991CC4010E94351411
:100910001C01FC01AA81BB81CD012A813B81821B84
:10092000930B801791071CF48D918193F5CF4A8129
:100930005B814115510519F0CA010E94D1142A8228
:100940003B82EA81FB81E00FF11F5BE550838981E7
:10095000811178C09FEFC91AD90A83012FEFE21ADB
:10096000F20AF501F782E682ADCF8D3509F062C05B
:100970000115110599F3EA81FB81E00FF11F319711
:1009800080818B3509F05AC03401759467946016E4
:100990007106F4F0C3010E9435141C01FC01AA8108
:1009A000BB81930121503109CD014A815B81841BB8
:1009B000950B821793071CF48D918193F5CF8A8153
:1009C0009B81009711F00E94D11443012A823B823F
:1009D000015011099FEFC91AD90A0115110509F033
:1009E000BDCFEFEFEE1AFE0AF501F782E682852C05
:1009F000942C56012A813B812115310519F0C9013A
:100A00000E94D114C501B4010F900F900F90DF9197
:100A1000CF911F910F91FF90EF90DF90CF90BF90FB
:100A2000AF909F908F907F906F905F904F903F908E
:100A30002F9008950115110509F490CFFFEFCF1AFB
:100A4000DF0A8CCF83015E2C4F2C198287CF0E9446
:100A50007E1A0F931F93CF93DF938C01EB01FC0160
:100A6000808191810097E1F068817981611571053C
:100A7000A9F0428153812C813D814217530770F0C8
:100A80000E94A01A8C819D81F801958384831D8228
:100A90001C82DF91CF911F910F9108950E94D11474
:100AA00088819981F801918380838A819B819383D6
:100AB00082838C819D8195838483198218821B8215
:100AC0001A82E5CF0F931F93CF93DF93EC018881B8
:100AD0009981009759F02A813B812617370730F01A
:100AE00081E0DF91CF911F910F9108958B016F5F8E
:100AF0007F4F0E94C119009759F0998388831B8307
:100B00000A832C813D81232B59F7FC011082E8CF09
:100B100080E0E7CFEF92FF920F931F93CF93DF9385
:100B20006115710541F480E0DF91CF911F910F9124
:100B3000FF90EF90089541155105B1F07B01EC0154
:100B40000C811D81040F151FB8010E9462058823C6
:100B500051F3288139818C819D81B701820F931FC8
:100B60000E94A01A1D830C8381E0DECFEF92FF92DA
:100B70000F931F93CF93DF93CDB7DEB72D970FB6AB
:100B8000F894DEBF0FBECDBF7C01CB01BA012AE0D5
:100B90008E010F5F1F4FA8010E944516F8010190BA
:100BA0000020E9F73197AF01401B510BB801C70195
:100BB0000E948A052D960FB6F894DEBF0FBECDBFFA
:100BC000DF91CF911F910F91FF90EF900895EF92D9
:100BD000FF920F931F93CF93DF93CDB7DEB7289784
:100BE0000FB6F894DEBF0FBECDBF7C01CB014AE04B
:100BF0008E010F5F1F4FB8010E942516F80101906A
:100C00000020E9F73197AF01401B510BB801C70134
:100C10000E948A0528960FB6F894DEBF0FBECDBF9E
:100C2000DF91CF911F910F91FF90EF900895FB01FD
:100C300001900020E9F73197AF01461B570B0C9448
:100C40008A05FB0144815581608171810C948A057C
:100C5000EF92FF920F931F93CF93DF93EC017B01F1
:100C60008A01BA010E94620528813981811114C06C
:100C70002115310519F0C9010E94D1141982188279
:100C80001D821C821B821A82CE01DF91CF911F919F
:100C90000F91FF90EF9008951D830C83B701C90158
:100CA0000E94A01AF1CFFC011182108213821282DD
:100CB00015821482FB0101900020E9F73197AF0102
:100CC000461B570B0C9428068F929F92AF92BF92AF
:100CD000CF92DF92EF92FF920F931F93CF93DF9308
:100CE000CDB7DEB72C970FB6F894DEBF0FBECDBFE1
:100CF0006C014B016BE671E00E94530610E000E0CE
:100D0000D40114968D919C911597081719070CF032
:100D100083C01296ED91FC91C801880F991FE80FCE
:100D2000F91FE080F18060E771E0CE0107960E9434
:100D30005306F70160817181CE0107960E94E70595
:100D400062E771E0CE0107960E941706D70114965C
:100D50006D917C91CE0107960E94E70562E771E0F4
:100D6000CE0107960E941706F70162817381CE01BA
:100D700007960E94E705B12CA12CD7011A968D91F8
:100D80009C918A159B054CF162E771E0CE010796B4
:100D90000E941706C501880F991FD7011696ED917D
:100DA000FC91E80FF91F60817181DB01ED91FC91ED
:100DB0000680F781E02DCE0101960995BE016F5F97
:100DC0007F4FCE0107960E942106CE0101960E9418
:100DD000D203BFEFAB1ABB0AD0CF64E771E0CE01FC
:100DE00007960E941706BE01695F7F4FC6010E94E9
:100DF0002106CE0107960E94D203F40184819581D9
:100E00000197081719072CF462E771E0C6010E94E8
:100E100017060F5F1F4F74CFC6012C960FB6F894BC
:100E2000DEBF0FBECDBFDF91CF911F910F91FF901D
:100E3000EF90DF90CF90BF90AF909F908F900895EC
:100E4000CF92DF92EF92FF920F931F93CF93DF9396
:100E500000D000D000D0CDB7DEB7E0918C01F0918A
:100E60008D01C080D180E280F38086E090E00E9416
:100E700035148C018CE491E0D80111969C938E93EB
:100E80001396DC92CE9212971596FC92EE921497DE
:100E9000B801CE0101960E9464064D815E81698190
:100EA0007A8187E991E00E94B1010E94C803CE01D6
:100EB00001960E94D2030115110541F0D801ED9170
:100EC000FC910084F185E02DC801099526960FB6A6
:100ED000F894DEBF0FBECDBFDF91CF911F910F9170
:100EE000FF90EF90DF90CF900895CF93DF93EC01C8
:100EF00066E771E00E945306CE01DF91CF9108951D
:100F0000CF92DF92EF92FF920F931F93CF93DF93D5
:100F100000D000D000D0CDB7DEB78C016B016AE7FE
:100F200071E00E945306F12CE12CD60116968D91AA
:100F30009C918E159F053CF162E771E0C8010E940B
:100F40001706C701880F991FD6011296ED91FC91E3
:100F5000E80FF91F60817181DB01ED91FC91068042
:100F6000F781E02DCE0101960995BE016F5F7F4F9D
:100F7000C8010E942106CE0101960E94D203BFEF54
:100F8000EB1AFB0AD2CF64E771E0C8010E94170692
:100F9000C80126960FB6F894DEBF0FBECDBFDF9115
:100FA000CF911F910F91FF90EF90DF90CF90089518
:100FB000CF92DF92EF92FF920F931F93CF93DF9325
:100FC00000D000D000D0CDB7DEB78C016B016DE74B
:100FD00071E00E945306F12CE12CD60116968D91FA
:100FE0009C918E159F053CF162E771E0C8010E945B
:100FF0001706C701880F991FD6011296ED91FC9133
:10100000E80FF91F60817181DB01ED91FC91068091
:10101000F781E02DCE0101960995BE016F5F7F4FEC
:10102000C8010E942106CE0101960E94D203BFEFA3
:10103000EB1AFB0AD2CF64E771E0C8010E941706E1
:10104000C80126960FB6F894DEBF0FBECDBFDF9164
:10105000CF911F910F91FF90EF90DF90CF90089567
:101060000F931F93CF93DF93EC018B0160E771E047
:101070000E945306F80160817181CE010E94E7054C
:1010800062E771E0CE010E941706F8016281738168
:10109000CE010E94E70562E771E0CE010E941706CB
:1010A000F80164817581CE010E94E70564E771E073
:1010B000CE010E941706CE01DF91CF911F910F91B3
:1010C0000895EF92FF920F931F93CF93DF93CDB7C5
:1010D000DEB768970FB6F894DEBF0FBECDBF8C01A8
:1010E0007B0160E771E00E945306F701408551855E
:1010F00062857385C8010E94B60562E771E0C80188
:101100000E94170686E0F7013296DE0111960190E3
:101110000D928A95E1F786E0FE013196DE01179681
:1011200001900D928A95E1F786E0FE013796DE0187
:101130001D9601900D928A95E1F7BE01635F7F4F86
:10114000CE0143960E943008BE016D5E7F4FC801FC
:101150000E942106CE0143960E94D20362E771E00D
:10116000C8010E941706B701645F7F4FCE010D963C
:101170000E943008BE01635F7F4FC8010E942106B4
:10118000CE010D960E94D20364E771E0C8010E946F
:101190001706C80168960FB6F894DEBF0FBECDBF24
:1011A000DF91CF911F910F91FF90EF900895EF92F3
:1011B000FF920F931F93CF93DF9300D000D000D006
:1011C000CDB7DEB78C017B0160E771E00E9453066A
:1011D000F7014085518562857385C8010E94B60577
:1011E00062E771E0C8010E941706B7016E5F7F4F8A
:1011F000CE0101960E943008BE016F5F7F4FC8018B
:101200000E942106CE0101960E94D20364E771E09C
:10121000C8010E941706C80126960FB6F894DEBFD3
:101220000FBECDBFDF91CF911F910F91FF90EF9037
:1012300008950F931F93CF93DF93EC01FB018A0175
:10124000198218821B821A821D821C8286179707B8
:1012500049F0608171816115710521F044815581EA
:101260000E942806F801808191819F838E8380816E
:101270009181A281B38188879987AA87BB87DF91F3
:10128000CF911F910F9108950F931F93CF93DF93E9
:10129000CDB7DEB728970FB6F894DEBF0FBECDBF2F
:1012A0008C016AE671E0CE0101960E94530640E08F
:1012B000F801268137818285938582179307ACF0E8
:1012C000848195812817390768F58081918100977D
:1012D00049F1820F931FFC0180818B3521F08D3500
:1012E00011F08C3201F5442351F18D819E8110E083
:1012F00000E0892B39F089819A81009739F10E94A9
:10130000FE158B01CE0101960E94D203C8012896DA
:101310000FB6F894DEBF0FBECDBFDF91CF911F9106
:101320000F91089580E08F83188641E050E0BE0160
:10133000695F7F4FCE0101960E948A0541E0F80166
:1013400086819781019697838683B2CF60E070E0B3
:10135000CB01D7CFEF92FF920F931F93CF93DF93E1
:10136000CDB7DEB762970FB6F894DEBF0FBECDBF24
:10137000AB01BC01CE0101960E941909CE01019674
:101380000E9444097C01CE0101960E9444098C010F
:10139000CE0101960E944409FE86ED86188B0F87C8
:1013A0009A8B898BCE0101960E94D2032D853E85B2
:1013B0004F85588969897A8980E090E062960FB6F6
:1013C000F894DEBF0FBECDBFDF91CF911F910F917B
:1013D000FF90EF9008952F923F924F925F926F92FD
:1013E0007F928F929F92AF92BF92CF92DF92EF92B5
:1013F000FF920F931F93CF93DF93CDB7DEB7C05803
:10140000D1090FB6F894DEBF0FBECDBF4B016F966A
:101410001FAE1EAE6F97FB01848195810197A19647
:101420009FAF8EAFA197AE01435A5F4FCE01859615
:101430000E941909CE0185960E943904512C412C35
:101440006817790741F0FFEF4F1A5F0ACE018596C2
:101450000E943904F5CF411480E458060CF083C093
:10146000C201880F991F0E943514E0968FAFE09754
:10147000E1969FAFE197AE01435A5F4FB401CE01B1
:1014800001960E941909BE016F5F7F4FCE018596BC
:101490000E9429058F8198859CA78BA789859A85AD
:1014A000AB85BC858DA79EA7AFA7B8ABCE01019633
:1014B0000E94D203E0969FADE097A2969FAFA297BD
:1014C000E196EFADE197A396EFAFA397A9961FAE74
:1014D0001EAEA997A996EEACFFACA9974E145F0477
:1014E00009F4DEC2CE0185960E9439046D966CAF78
:1014F0007DAF8EAF9FAF6D97F40184819581079783
:1015000008F4B7C2AE01475A5F4FB401CE01499605
:101510000E941909CE0149960E944409E5969FAFA1
:101520008EAFE597CE0149960E944409E7969FAF9A
:101530008EAFE797CE0149960E944409E9969FAF86
:101540008EAFE997CE0149960E943904712C612C27
:101550006817790759F0FFEF6F1A7F0ACE01499695
:101560000E943904F5CF8FEF9FEF7DCF611480E4A7
:1015700078060CF07EC0C301880F991F0E943514B5
:10158000E2968FAFE297E3969FAFE397AE01475A9B
:101590005F4FB401CE0101960E941909BE016F5F31
:1015A0007F4FCE0149960E9429058F81988598A387
:1015B0008F8F89859A85AB85BC8589A39AA3ABA3B8
:1015C000BCA3CE0101960E94D203CE0149960E948F
:1015D0004409CE0149960E944409CE0149960E94D1
:1015E0004409E2969FADE297A6969FAFA697E39631
:1015F000EFADE397A796EFAFA797AB961FAE1EAEE2
:10160000AB97AB96EEACFFACAB976E147F0409F4CE
:10161000FEC1CE0149960E94390469966CAF7DAF38
:101620008EAF9FAF6997F40184819581039708F489
:10163000D9C18E01035F1F4FAE014B5A5F4FB401FA
:10164000C8010E941909C8010E944409EB969FAF86
:101650008EAFEB97C8010E943904312C212C8617DC
:10166000970751F0FFEF2F1A3F0AC8010E94390473
:10167000F6CF8FEF9FEF82CF211480E438060CF075
:101680001EC1C101880F991F0E943514AE968FAFFD
:10169000AE97AF969FAFAF97AE014B5A5F4FB40175
:1016A0008E010F5F1F4FC8010E9419097E019DE046
:1016B000E90EF11CB801C7010E9429058F819885A8
:1016C0009C8B8B8B89859A85AB85BC858D8B9E8BFE
:1016D000AF8BB88FC8010E94D203C7010E94440992
:1016E000AE96EFADAE97A496EFAFA497AF96FFADD1
:1016F000AF97A596FFAFA597AD961FAE1EAEAD975F
:10170000EC96EFAEEC97ED96FFAEED975801AD96E7
:10171000EEACFFACAD972E143F0409F40FC1EC966C
:101720008FADEC97ED969FADED970E9439046596CD
:101730006CAF7DAF8EAF9FAF6597F40184819581CB
:101740000B9708F4E4C0AE014F5A5F4FB401C501D6
:101750000E941909C5010E9444096C01C5010E943B
:10176000390461966CAF7DAF8EAF9FAF6197BE01BC
:10177000635B7F4FC4010E94AA0924962FAF249770
:1017800025963FAF259726964FAF269727965FAFB2
:10179000279728966FAF289729967FAF2997C5017D
:1017A0000E9439042D966CAF7DAF8EAF9FAF2D9701
:1017B0002D962EAD3FAD2D970D2C000CEE08FF0899
:1017C00086E0FE01ED5BFF4FDE012617370709F4C7
:1017D00079C0D79601900D928A95E1F7BE01675BBB
:1017E0007F4FC4010E94AA0929AB3AAB4BAB5CAB5B
:1017F0006DAB7EAB8EE190E00E9435148C01AFA9F9
:10180000B8AD89AD9AADEF969FAF8EAFEF976BAD48
:101810007CAD49A95AA92BA93CA9EDA9FEA9C1589B
:10182000DF4FF983E883CF57D040F801B383A28319
:101830009583848377836683C086D186E286F38628
:101840008EE0E82E81E0F82EF182E0825587448711
:1018500037872687C158DF4F88819981CF57D0407D
:10186000918B808BB18FA08FEF96EEACFFACEF9792
:10187000F38EE28E758F648F4A1B5B0B538B428B0A
:101880002E193F09358B248B861B970B978B868BE4
:10189000C5010E94D203A596EEADFFADA5970193B9
:1018A0001193A596FFAFEEAFA597AD968EAD9FAD08
:1018B000AD970196AD969FAF8EAFAD9728CF8FEFC6
:1018C0009FEFE2CED19601900D928A95E1F78CE0E0
:1018D00090E00E9435148C0186E0FE01F196DE0155
:1018E000DD9601900D928A95E1F7D80186E291E0AC
:1018F0008D939D9386E0FE01FD9601900D928A9551
:10190000E1F7F801C086D186E286F386C1CF8CE08C
:1019100090E00E9435148C0196E2E92E91E0F92EB8
:10192000F801F182E08213821282158214821782FA
:1019300016821086118612861386ADCF8101015062
:101940001109EB96EEACFFACEB978CE090E0EF2842
:1019500081F50E9435147C0182E391E0F7019183C7
:101960008083AE968FADAE978283AF969FADAF97D3
:10197000938315821482178306831086118612863C
:101980001386CE010D960E94D203A796EEADFFAD51
:10199000A797E192F192A796FFAFEEAFA797AB960C
:1019A0008EAD9FADAB970196AB969FAF8EAFAB97C9
:1019B00028CE0E9435147C01AE968FADAE97F7010C
:1019C0008283AF969FADAF9793831582148217835E
:1019D000068310861186128613868AE191E0918330
:1019E0008083CFCF8CE090E00E9435147C0182E3AD
:1019F00091E0F70191838083138212821582148211
:101A0000178216821086118612861386BECF8CE04E
:101A100090E00E9435146C017301E2960FADE297DD
:101A2000E3961FADE397E9962EAD3FADE997E796B4
:101A30004EAD5FADE797E5966EAD7FADE5970E9441
:101A40005203CE0149960E94D203A396EEADFFAD9C
:101A5000A397C192D192A396FFAFEEAFA397A99699
:101A60008EAD9FADA9970196A9969FAF8EAFA9970E
:101A700031CD82E090E00E9435148C018CE090E042
:101A80000E9435146C01EE24E394F12C30E020E048
:101A900050E040E070E060E0C6010E945203D5CF04
:101AA00086E090E00E9435148C018CE491E0F8010E
:101AB00091838083E096EFACE097E282E196FFAC01
:101AC000E197F38255824482CE0185960E94D2032B
:101AD000C801C058DF4F0FB6F894DEBF0FBECDBFB0
:101AE000DF91CF911F910F91FF90EF90DF90CF90FA
:101AF000BF90AF909F908F907F906F905F904F902E
:101B00003F902F900895CF92DF92EF92FF92CF9364
:101B1000DF93EC01CE80DF808FEFC81AD80A0D2C3E
:101B2000000CEE08FF081C141D041E041F04FCF426
:101B30000E94A615A70196010E948C176B010E94B6
:101B4000A301688779878A879B87DD82CC82CC0C4A
:101B5000DD1C8A819B81C80ED91EF601808191818E
:101B6000DF91CF91FF90EF90DF90CF900895C12C3F
:101B7000D12C7601E4CF4F925F926F927F928F9239
:101B80009F92AF92BF92CF92DF92EF92FF920F930C
:101B90001F93CF93DF93CDB7DEB768970FB6F89456
:101BA000DEBF0FBECDBF8C01CB01BA010E949316E0
:101BB0006B017C01F80160857185828593850E94A7
:101BC00091169B01AC01C701B6010E9493182B012D
:101BD0003C0186E0F8013296DE01119601900D92EB
:101BE0008A95E1F7F80166897789072E000C880B42
:101BF000990B0E949316A30192010E94CE166B01CD
:101C00007C016D817E81072E000C880B990B0E9450
:101C100093169B01AC01C701B6010E9427180E94D0
:101C20003B196B017C0186E0F8013296DE011796C4
:101C300001900D928A95E1F7F80164897589072E64
:101C4000000C880B990B0E949316A30192010E942D
:101C5000CE164B015C0169857A85072E000C880B36
:101C6000990B0E9493169B01AC01C501B4010E941F
:101C700027180E943B194B015C0186E0F80132965F
:101C8000DE011D9601900D928A95E1F7F8016289B7
:101C90007389072E000C880B990B0E949316A301E1
:101CA00092010E94CE162B013C016D857E85072E88
:101CB000000C880B990B0E9493169B01AC01C30189
:101CC000B2010E9427180E943B190E940519F801D1
:101CD000718F608FC501B4010E940519F801738FDF
:101CE000628FC701B6010E940519F801758F648FD4
:101CF00086E07896DE01539601900D928A95E1F781
:101D00002B893C894D895E896F89788D80E090E0D0
:101D100068960FB6F894DEBF0FBECDBFDF91CF91AE
:101D20001F910F91FF90EF90DF90CF90BF90AF90F9
:101D30009F908F907F906F905F904F9008951F922B
:101D40000F920FB60F9211242F933F938F939F936F
:101D5000AF93BF9380918F0190919001A0919101D9
:101D6000B091920130918E0123E0230F2D3758F569
:101D70000196A11DB11D20938E0180938F01909338
:101D80009001A0939101B093920180919301909161
:101D90009401A0919501B09196010196A11DB11DEC
:101DA0008093930190939401A0939501B093960131
:101DB000BF91AF919F918F913F912F910F900FBE47
:101DC0000F901F90189526E8230F0296A11DB11DB4
:101DD000D2CF1F920F920FB60F9211242F933F93E1
:101DE0004F935F936F937F938F939F93AF93BF9323
:101DF000EF93FF9387E991E00E946102FF91EF91D9
:101E0000BF91AF919F918F917F916F915F914F9112
:101E10003F912F910F900FBE0F901F9018951F921A
:101E20000F920FB60F9211242F938F939F93EF93DE
:101E3000FF93E091A701F091A8018081E091AD01AD
:101E4000F091AE0182FD1BC090818091B0018F5F47
:101E50008F732091B101821741F0E091B001F0E061
:101E6000E956FE4F958F8093B001FF91EF919F91BE
:101E70008F912F910F900FBE0F901F90189580811A
:101E8000F4CFE7E9F1E01382128288EE93E0A0E05C
:101E9000B0E084839583A683B7838AE591E091833C
:101EA000808385EC90E09587848784EC90E0978729
:101EB000868780EC90E0918B808B81EC90E0938B17
:101EC000828B82EC90E0958B848B86EC90E0978BF4
:101ED000868B118E128E138E148E6AE671E084E367
:101EE00092E00C945306CF93DF93CDB7DEB766979D
:101EF0000FB6F894DEBF0FBECDBF789484B5826074
:101F000084BD84B5816084BD85B5826085BD85B59D
:101F1000816085BD80916E00816080936E0010921B
:101F20008100809181008260809381008091810096
:101F30008160809381008091800081608093800027
:101F40008091B10084608093B1008091B000816085
:101F50008093B00080917A00846080937A008091B1
:101F60007A00826080937A0080917A008160809309
:101F70007A0080917A00806880937A001092C10084
:101F8000E091A701F091A80182E08083E091A30194
:101F9000F091A4011082E091A501F091A6018FECCF
:101FA00080831092AF01E091AB01F091AC0186E02B
:101FB0008083E091A901F091AA01808180618083F2
:101FC000E091A901F091AA01808188608083E0916D
:101FD000A901F091AA01808180688083E091A90124
:101FE000F091AA0180818F7D808308E610E0F801DE
:101FF0006491662341F087E991E00E9483020F5FBC
:102000001F4F892BA1F70E94C8038CE090E00E942B
:1020100035145C01F6E28F2EF1E09F2EDC01119663
:102020009C928E92CC24CA94D12C1396DC92CE92A0
:10203000129715961C921E92149717961C921E9238
:10204000169708E8402E03E1502E612C712CFC01FC
:1020500040865186628673868CE090E00E9435143B
:102060007C01DC0111969C928E9213961C921E921A
:10207000129715961C921E9214971796DC92CE9288
:102080001697FC0140865186628673868CE090E04C
:102090000E9435148C01DC0111969C928E9213964D
:1020A000DC92CE9212971596DC92CE9214971796E8
:1020B000DC92CE921697FC0140865186628673862A
:1020C00086E090E00E9435141C01DC011196BC9260
:1020D000AE921396FC92EE92129715961C930E9365
:1020E00014978CE090E00E9435148C01FC0133823F
:1020F00022821582148282E0282E312C3782268299
:1021000010861186128613868AE191E0918380837E
:1021100082E090E00E9435149E878D87FC01118338
:1021200000838CE090E00E9435145C01EE24E3947F
:10213000F12C0D851E8529E030E04AE050E06BE08F
:1021400070E0C5010E9452038CE090E00E943514BB
:102150008C01DC0111969C928E921396DC92CE92A9
:10216000129715961C921E92149717961C921E9207
:102170001697FC0140865186628673868CE090E05B
:102180000E9435147C01DC0111969C928E9213966C
:10219000DC92CE9212971596DC92CE9214971796F7
:1021A000DC92CE921697FC01408651866286738639
:1021B00084E090E00E9435146C01DC0111961C93C0
:1021C0000E931396FC92EE9212978CE090E00E9490
:1021D00035147C0182E391E0F70191838083D382FF
:1021E000C2821582148281E090E0978386831086F4
:1021F00011861286138682E090E00E9435148C01CD
:10220000FC01F182E0828CE090E00E9435146C01C8
:10221000EE24E394F12C23E030E045E050E066E06A
:1022200070E00E94520384E090E00E9435147C012B
:10223000DC011196BC92AE921396DC92CE9212976C
:1022400084E090E00E943514FC01F182E082338248
:10225000228290938D0180938C0181E190E00E9415
:1022600035148C018CE090E0D80111969C938E93EC
:1022700013961C921E92129715961C921E921497FA
:102280000E94A301F801668377838087918781E0AC
:10229000828760E08CE00E94F000D8011C96FC92DE
:1022A000EE921B971E963C922E921D9750961C9272
:1022B0001E921F9710938B0100938A0181E090E09A
:1022C0000E94351490938901809388018E010F5FDD
:1022D0001F4FE0E02E2EE0E03E2EE0908C01F090CB
:1022E0008D01E114F10409F406C10E94A3012B0140
:1022F0003C01D12CC12CF70182819381C816D906EB
:102300000CF098C04601880C991C9E8A8D8A019019
:10231000F081E02DE80DF91DA081B18118968D9115
:102320009C911997880F991F1696ED91FC91E80FD3
:10233000F91FA081B18114968D919C911597880FFA
:10234000991F1296ED91FC911397E80FF91F808168
:102350009181FC01208531854285538518968D90A9
:102360009D90AD90BC901B97280D391D4A1D5B1D9B
:10237000241535054605570540F4ED91FC9111975C
:102380000190F081E02DCD010995D701ED91FC91EF
:102390008D889E88E80DF91DA081B18118962D9138
:1023A0003C911997220F331F1696ED91FC91E20F85
:1023B000F31F0190F081E02D208531854285538502
:1023C00053014201821A930AA40AB50A8D869E8699
:1023D000AF86B88ADC01ED91FC910190F081E02D8F
:1023E000B501A401099529833A834B835C836D83EE
:1023F0007E83F70180819181AD88BE88A80EB91EC9
:10240000D501AD90BC9069817A81F50180810E94EF
:1024100021016D817E81D50112968C910E9421014E
:102420006B817C81F50184810E942101FFEFCF1A2D
:10243000DF0A61CFE0908A01F0908B01D7012D91E6
:102440003C913327F901EA53FF4F8491F901EE548F
:10245000FF4FD490F901E256FF4FC490CC2009F40D
:1024600065C081110E949900EC2DF0E0EE0FFF1F76
:10247000E058FF4FA591B491EC91DE2209F456C0CB
:10248000F7018285882331F012868281938101963B
:1024900093838283F701848195811582148200974A
:1024A00051F12785308937FD70C0220F331F4385D6
:1024B0005485240F351FD901ED91FC91408551853C
:1024C0009C01240F351F62857385621773070CF01A
:1024D00059C09B01241B350B821B930B01976F5F27
:1024E0007F4F0E9493199187808788248A94982C23
:1024F000F701908A878687E991E00E944102892B43
:1025000009F47EC06AE671E0C8010E9453060E9489
:10251000010297FD48C08F83188641E050E0BE015C
:10252000695F7F4FC8010E948A05F1CF0E94A30115
:10253000AB01BC01D7011A968C91811108C0F7013B
:102540004683578360877187882483948286F70146
:1025500086819781A085B18588519C4FAF4FBF4F31
:1025600084179507A607B70708F094CF8281938157
:10257000009711F095838483D70113961C921E92C5
:10258000129788CF31872087B0CF258536852817C9
:1025900039072CF421503109308B2787ACCF0197B4
:1025A000908B8787A8CFB80184E392E00E94210630
:1025B000C8010E94D2030E947E012B013C016AE007
:1025C000C62ED12CE12CF12C0E947E0164197509D4
:1025D00086099709683E734081059105A8F3F1E0EB
:1025E000CF1AD108E108F10828EE420E23E0521E6E
:1025F000611C711CC114D104E104F10429F77BCFE3
:10260000C0903802D0903902C114D104E1F1E090B9
:102610003402F0903502D7018C918823A1F160E853
:1026200071E0C7010E94971A892BC9F580913A027F
:1026300090913B02009711F48EE392E06801C81A72
:10264000D90A0D2C000CEE08FF084AE0C701B601BC
:10265000F7FE0DC06DE287E991E00E9483026627D4
:102660007727CB016C197D098E099F094AE00E94EA
:102670007A030E94C80350E040E06AE671E084E318
:1026800092E00E9428062114310409F426CE0E940B
:102690004D02882309F41DCE0E9400001ACE60E28C
:1026A00070E0C7010E948C1A009741F0FC01EE19FE
:1026B000FF097F01FFEFEF16FF0609F476016AE6D6
:1026C00071E0CE0107960E945306809138029091E6
:1026D0003902009741F18E159F0508F47C01E091C5
:1026E0003402F0913502EE0DFF1DD0801082609112
:1026F0003402709135026115710509F45CC0FB016B
:1027000001900020E9F73197AF01461B570BCE012E
:1027100007960E9428068091340290913502E80EB7
:10272000F91ED701DC928B859C85892B09F482C028
:10273000EF80F88464E871E0C7010E94971A892B42
:1027400009F07DC0A0908C01B0908D01F12CE12C9E
:10275000F5018081918122813381E216F3060CF02C
:1027600042C09701220F331F820F931FDC01CD90CF
:10277000DC90C114D10499F1712C612CF601868191
:102780009781228533852615370514F19301220F91
:10279000331F820F931FDC018D919C91009739F0BC
:1027A000DC01ED91FC910480F581E02D0995BFEFEE
:1027B0006B1A7B0AE3CF8F819885009711F00E94F6
:1027C000D11418861F821C861B861A861986A3CFF1
:1027D000009711F00E94D114C6010E94D114EFEFAE
:1027E000EE1AFE0AB5CF009711F00E94D1148CE4C6
:1027F000882E81E0982E9A8289821C821B821E82FA
:102800001D8264E372E0C8010E94EB097C01D701DC
:10281000ED91FC910280F381E02DC7010995E1144F
:10282000F10441F0D701ED91FC910084F185E02D98
:10283000C7010995CE0107960E94D2031CCF66E717
:1028400071E0C7010E94971A892BA1F782E090E0FE
:102850000E9435147C01EEE3F1E0DC01ED93FC9382
:10286000D6CF84E392E00C94D2030F931F93CF93BF
:10287000DF938230910510F482E090E0E0913C0219
:10288000F0913D0230E020E0B0E0A0E0309799F414
:102890002115310509F44AC0281B390B24303105B4
:1028A000D8F58A819B816115710589F1FB019383BC
:1028B0008283FE0111C0408151810281138148173A
:1028C0005907E0F04817590799F4109761F01296EC
:1028D0000C93129713961C933296CF01DF91CF91F0
:1028E0001F910F91089500933C0210933D02F4CF85
:1028F0002115310551F04217530738F0A901DB01CA
:102900009A01BD01DF01F801C1CFEF01F9CF90932A
:102910003D0280933C02CDCFFE01E20FF31F819375
:1029200091932250310939832883D7CF20913A02DD
:1029300030913B02232B41F420910201309103019D
:1029400030933B0220933A02209100013091010123
:102950002115310541F42DB73EB740910401509146
:102960000501241B350BE0913A02F0913B02E2177E
:10297000F307A0F42E1B3F0B2817390778F0AC01A2
:102980004E5F5F4F2417350748F04E0F5F1F50937F
:102990003B0240933A02819391939FCFF0E0E0E0B5
:1029A0009CCFCF93DF930097E9F0FC01329713821D
:1029B0001282A0913C02B0913D02ED0130E020E096
:1029C0001097A1F420813181820F931F20913A0248
:1029D00030913B022817390709F061C0F0933B02A0
:1029E000E0933A02DF91CF910895EA01CE17DF0715
:1029F000E8F54A815B819E0141155105B1F7E90176
:102A0000FB83EA8349915991C40FD51FEC17FD0749
:102A100061F4808191810296840F951FE901998369
:102A20008883828193819B838A83F0E0E0E0129621
:102A30008D919C9113970097B9F52D913C91119729
:102A4000CD010296820F931F20913A0230913B02F2
:102A50002817390739F6309751F510923D02109238
:102A60003C02B0933B02A0933A02BCCFD383C28313
:102A700040815181840F951FC817D90761F44E5FBB
:102A80005F4F88819981480F591F518340838A8104
:102A90009B81938382832115310509F0B0CFF09398
:102AA0003D02E0933C029ECFFD01DC01C0CF1382CA
:102AB0001282D7CF8F929F92AF92BF92CF92DF9226
:102AC000EF92FF92CF93DF93EC01688179818A8145
:102AD0009B81611571058105910521F464E279ED11
:102AE0008BE597E02DE133EF41E050E00E948C1739
:102AF00049015A019B01AC01A7EAB1E40E94AB175E
:102B00006B017C01ACEEB4EFA50194010E94B917F2
:102B1000C60ED71EE81EF91EF7FE06C081E0C81AD1
:102B2000D108E10880E8F80AC882D982EA82FB82EB
:102B3000C701B6019F77DF91CF91FF90EF90DF90B3
:102B4000CF90BF90AF909F908F9008958F929F925B
:102B5000AF92BF92CF92DF92EF92FF926091060107
:102B6000709107018091080190910901611571052B
:102B70008105910521F464E279ED8BE597E02DE183
:102B800033EF41E050E00E948C1749015A019B014C
:102B9000AC01A7EAB1E40E94AB176B017C01ACEE7B
:102BA000B4EFA50194010E94B917C60ED71EE81E06
:102BB000F91EF7FE06C081E0C81AD108E10880E8D6
:102BC000F80AC0920601D0920701E0920801F09243
:102BD0000901C701B6019F77FF90EF90DF90CF907A
:102BE000BF90AF909F908F9008956093060170936F
:102BF0000701809308019093090108951F93FC0138
:102C000099278827BC01E89411911032E9F3193013
:102C100010F01E30C8F31B3251F01D3249F4689495
:102C200006C00E943016610F711D811D911D11910A
:102C300010531A30B0F33EF49095809570956195DD
:102C40007F4F8F4F9F4F1F910895BB274A3031F41C
:102C5000992322F4BDE2909581959F4F0C946816BC
:102C6000592F482F372F262F660F771F881F991F40
:102C7000660F771F881F991F620F731F841F951F90
:102C8000660F771F881F991F0895BB27FA01A62F8B
:102C90006217710581059105330B30FB66F0AA2799
:102CA000660F771F881F991FAA1FA21710F0A21B7B
:102CB00063953850A9F7A05DAA3308F0A95DA193E8
:102CC00036F7B111B1931082CA010C948116BB275B
:102CD000FB015527AA27880F991FAA1FA41710F0D8
:102CE000A41B83955051B9F7A05DAA3308F0A95DE4
:102CF000A193009779F7B111B1931192CB010C9484
:102D00008116DC01FC01672F71917723E1F732977F
:102D100004C07C916D9370836291AE17BF07C8F3B6
:102D20000895E89409C097FB3EF4909580957095BE
:102D300061957F4F8F4F9F4F9923A9F0F92F96E907
:102D4000BB279395F695879577956795B795F1117C
:102D5000F8CFFAF4BB0F11F460FF1BC06F5F7F4F19
:102D60008F4F9F4F16C0882311F096E911C077232B
:102D700021F09EE8872F762F05C0662371F096E834
:102D8000862F70E060E02AF09A95660F771F881F03
:102D9000DAF7880F9695879597F908950E94E116BE
:102DA0000C9452170E94441738F00E944B1720F0E1
:102DB000952311F00C943B170C94411711240C949B
:102DC00086170E94631770F3959FC1F3950F50E02B
:102DD000551F629FF001729FBB27F00DB11D639FCD
:102DE000AA27F00DB11DAA1F649F6627B00DA11D73
:102DF000661F829F2227B00DA11D621F739FB00D19
:102E0000A11D621F839FA00D611D221F749F332788
:102E1000A00D611D231F849F600D211D822F762F21
:102E20006A2F11249F5750409AF0F1F088234AF0FE
:102E3000EE0FFF1FBB1F661F771F881F915050406A
:102E4000A9F79E3F510580F00C943B170C94861710
:102E50005F3FE4F3983ED4F3869577956795B795F1
:102E6000F795E7959F5FC1F7FE2B880F911D96950B
:102E7000879597F9089597F99F6780E870E060E07B
:102E800008959FEF80EC089500240A941616170603
:102E900018060906089500240A941216130614064B
:102EA00005060895092E0394000C11F4882352F0AE
:102EB000BB0F40F4BF2B11F460FF04C06F5F7F4F66
:102EC0008F4F9F4F089557FD9058440F551F59F04D
:102ED0005F3F71F04795880F97FB991F61F09F3F07
:102EE00079F087950895121613061406551FF2CF30
:102EF0004695F1DF08C0161617061806991FF1CF80
:102F000086957105610508940895E894BB276627A6
:102F10007727CB0197F90895052E97FB1EF40094AF
:102F20000E94A31757FD07D00E94F51707FC03D096
:102F30004EF40C94A31750954095309521953F4F32
:102F40004F4F5F4F089590958095709561957F4F95
:102F50008F4F9F4F08950E941718A59F900DB49F03
:102F6000900DA49F800D911D11240895B7FF0C941E
:102F7000AB170E94AB17821B930B08952F923F92C1
:102F80004F925F926F927F928F929F92AF92BF9279
:102F9000CF92DF92EF92FF920F931F93CF93DF9325
:102FA000CDB7DEB7CA1BDB0B0FB6F894DEBF0FBE82
:102FB000CDBF09942A88398848885F846E847D84CF
:102FC0008C849B84AA84B984C884DF80EE80FD80D1
:102FD0000C811B81AA81B981CE0FD11D0FB6F89447
:102FE000DEBF0FBECDBFED010895A1E21A2EAA1BD0
:102FF000BB1BFD010DC0AA1FBB1FEE1FFF1FA217A9
:10300000B307E407F50720F0A21BB30BE40BF50BA5
:10301000661F771F881F991F1A9469F7609570952E
:10302000809590959B01AC01BD01CF010895A29FB1
:10303000B001B39FC001A39F700D811D1124911D8C
:10304000B29F700D811D1124911D08955058BB270A
:10305000AA270E943E180C9452170E94441738F079
:103060000E944B1720F039F49F3F19F426F40C947A
:1030700041170EF4E095E7FB0C943B17E92F0E94F3
:10308000631758F3BA17620773078407950720F090
:1030900079F4A6F50C9485170EF4E0950B2EBA2F53
:1030A000A02D0B01B90190010C01CA01A00111244E
:1030B000FF27591B99F0593F50F4503E68F11A16FA
:1030C000F040A22F232F342F4427585FF3CF46958B
:1030D00037952795A795F0405395C9F77EF41F16AD
:1030E000BA0B620B730B840BBAF09150A1F0FF0F77
:1030F000BB1F661F771F881FC2F70EC0BA0F621F63
:10310000731F841F48F4879577956795B795F79552
:103110009E3F08F0B0CF9395880F08F09927EE0FE7
:103120009795879508950E94A7180C9452170E94AE
:103130004B1758F00E94441740F029F45F3F29F0E4
:103140000C943B1751110C9486170C9441170E9454
:10315000631768F39923B1F3552391F3951B550B2E
:10316000BB27AA2762177307840738F09F5F5F4F5A
:10317000220F331F441FAA1FA9F335D00E2E3AF099
:10318000E0E832D091505040E695001CCAF72BD0B1
:10319000FE2F29D0660F771F881FBB1F2617370702
:1031A0004807AB07B0E809F0BB0B802DBF01FF2734
:1031B00093585F4F3AF09E3F510578F00C943B17BF
:1031C0000C9486175F3FE4F3983ED4F38695779589
:1031D0006795B795F7959F5FC9F7880F911D9695ED
:1031E000879597F90895E1E0660F771F881FBB1F49
:1031F000621773078407BA0720F0621B730B840BF6
:10320000BA0BEE1F88F7E09508950E940C19689498
:10321000B1110C94861708950E946B1788F09F5780
:1032200098F0B92F9927B751B0F0E1F0660F771FEA
:10323000881F991F1AF0BA95C9F714C0B13091F0E0
:103240000E948517B1E008950C948517672F782F99
:103250008827B85F39F0B93FCCF3869577956795A5
:10326000B395D9F73EF490958095709561957F4F11
:103270008F4F9F4F08950E947B1990F09F3748F41D
:10328000911116F00C94861760E070E080E89FEBD7
:10329000089526F41B16611D711D811D0C94521991
:1032A0000C946D19882371F4772321F09850872BA3
:1032B000762F07C0662311F499270DC09051862BF5
:1032C00070E060E02AF09A95660F771F881FDAF7A2
:1032D000880F9695879597F908959F3F31F0915003
:1032E00020F4879577956795B795880F911D9695EA
:1032F000879597F908950E946B17A0F0BEE7B9175C
:1033000088F4BB279F3860F41616B11D672F782FFD
:103310008827985FF7CF869577956795B11D939528
:103320009639C8F3089597FB072E16F4009407D03A
:1033300077FD09D00E94A71907FC05D03EF49095AF
:1033400081959F4F0895709561957F4F0895AA1BB1
:10335000BB1B51E107C0AA1FBB1FA617B70710F080
:10336000A61BB70B881F991F5A95A9F780959095B2
:10337000BC01CD010895EE0FFF1F0590F491E02DE3
:103380000994B0E0A0E0E7ECF9E10C94C0178C01DF
:10339000009751F4CB010E9435148C01C801CDB7C0
:1033A000DEB7E0E10C94DC17FC01E60FF71F9C018F
:1033B00022503109E217F30708F49DC0D901CD91DD
:1033C000DC911197C617D70798F0C530D10530F3B7
:1033D000CE0104978617970708F3C61BD70B2297D1
:1033E000C193D1936D937C93CF010E94D114D6CF1A
:1033F0005B01AC1ABD0A4C018C0E9D1EA0913C02D3
:10340000B0913D02512C412CF12CE12C109731F55B
:1034100080913A0290913B028815990509F05CC0B1
:103420004616570608F058C080910001909101019E
:10343000009741F48DB79EB740910401509105016A
:10344000841B950BE817F90708F055C0F0933B0271
:10345000E0933A02F90171836083A0CF8D919C9132
:10346000119712966C90129713967C901397A8154B
:10347000B90559F56C0142E0C40ED11CCA14DB0435
:1034800020F1AC014A195B09DA011296159780F018
:103490006282738251834083D9016D937C93E114DE
:1034A000F10471F0D7011396FC93EE93129776CF47
:1034B00022968C0F9D1FF90191838083F301EFCF3A
:1034C000F0933D02E0933C0269CF4816590608F498
:1034D0002C017D01D3019ACFCB010E9435147C01D0
:1034E000009749F0AE01B8010E94831AC8010E94FA
:1034F000D114870153CF10E000E050CF81E090E07D
:10350000F8940C94A71AFB01DC0102C001900D9203
:1035100041505040D8F70895FC018191861721F061
:103520008823D9F7992708953197CF010895FB0192
:10353000DC018D91019080190110D9F3990B089548
:10354000FB01DC0101900D920020E1F7089510E0ED
:10355000CEE6D0E004C0FE010E94BB192196CF3612
:08356000D107C9F7F894FFCF71
:1035680000003E0280000100000000000000BB0DCA
:1035780030032B04610800000000830D1A042104A5
:10358800D8070000000031032F032D04D7080000DE
:1035980000000C03DC0310048007000000002F0467
:1035A800200775070B03D00300000000EB09F002A9
:1035B8006406AF01DA03000000008302B101DE01F6
:1035C800D0024102ED0133020D0A00534554200098
:1035D8005B002C005D00474554005B30005B310008
:0835E80052414D00534554000F
:00000001FF
