:100000000C946A000C9492000C9492000C94920050
:100010000C9492000C9492000C9492000C94920018
:100020000C9492000C9492000C9492000C94920008
:100030000C9492000C9492000C9492000C949200F8
:100040000C946F0E0C9492000C94DF0E0C94B90E6D
:100050000C9492000C9492000C9492000C949200D8
:100060000C9492000C9492005374617274696E67E0
:10007000204C4544205363686564756C65722100AB
:100080000000000800020100000304070000000057
:100090000000000000000000250028002B000000E8
:1000A0000000240027002A000404040404040404BB
:1000B0000202020202020303030303030102040813
:1000C00010204080010204081020010204081020C2
:1000D000110F351311241FBECFEFD8E0DEBFCDBF07
:1000E00011E0A0E0B1E0E0E2F3E302C005900D9280
:1000F000A838B107D9F722E0A8E8B1E001C01D9205
:10010000AC33B207E1F710E0C9E6D0E004C02197B4
:10011000FE010E949718C836D107C9F70E94430F05
:100120000C9483190C94000090E0FC01E454FF4F00
:10013000249188559F4FFC018491882399F090E089
:10014000880F991FFC01E256FF4FA591B491FC0165
:10015000EC56FF4F859194918FB7F894EC91E22B78
:10016000EC938FBF089590E0FC01E058FF4F24917D
:10017000FC01E454FF4F3491FC01E855FF4FE4913A
:10018000EE23C9F0222339F0233001F1A8F4213005
:1001900019F1223029F1F0E0EE0FFF1FEC56FF4F6E
:1001A000A591B4918FB7F894EC91611126C0309568
:1001B0003E233C938FBF08952730A9F02830C9F023
:1001C000243049F7809180008F7D03C080918000AA
:1001D0008F7780938000DFCF84B58F7784BDDBCFAE
:1001E00084B58F7DFBCF8091B0008F778093B00076
:1001F000D2CF8091B0008F7DF9CF3E2BDACF1F9305
:10020000CF93DF93182FEB010E949400209739F4CD
:1002100060E0812FDF91CF911F910C94B300CF3F0D
:10022000D10511F461E0F5CFE12FF0E0E058FF4F88
:10023000E491E33031F140F4E130B1F0E230E1F04B
:10024000C038D1057CF7E4CFE73029F1E83059F127
:10025000E430B1F780918000806280938000D09379
:100260008B00C0938A0004C084B5806884BDC7BD7C
:10027000DF91CF911F91089584B5806284BDC8BD80
:10028000F7CF80918000806880938000D0938900B0
:10029000C0938800EDCF8091B00080688093B0005B
:1002A000C093B300E5CF8091B00080628093B0002E
:1002B000C093B400DDCF3FB7F89480919101909145
:1002C0009201A0919301B091940126B5A89B05C01D
:1002D0002F3F19F00196A11DB11D3FBFBA2FA92FC5
:1002E000982F8827BC01CD01620F711D811D911DC2
:1002F00042E0660F771F881F991F4A95D1F708952E
:100300002FB7F89460918D0170918E0180918F01CB
:10031000909190012FBF089508950895AF92BF92D4
:10032000CF92DF92EF92FF920F931F93CF93DF93C1
:100330006C017B018B01040F151FEB015E01AE18F0
:10034000BF08C017D10759F06991D601ED91FC9112
:100350000190F081E02DC6010995892B79F7C5013F
:10036000DF91CF911F910F91FF90EF90DF90CF9091
:10037000BF90AF900895FC01538D448D252F30E040
:10038000842F90E0821B930B541710F0CF960895A2
:1003900001970895FC01918D828D981761F0A28DCF
:1003A000AE0FBF2FB11D5D968C91928D9F5F9F7395
:1003B000928F90E008958FEF9FEF08950F931F9312
:1003C0000E94800160939D0170939E0180939F0124
:1003D0009093A00185E991E00E94CA0197FF1DC09A
:1003E0000E94800100919D0110919E0120919F012A
:1003F0003091A001601B710B820B930B009199014E
:1004000010919A0120919B0130919C016017710716
:1004100082079307F8F28FEF9FEF1F910F910895D6
:10042000FC01918D828D981731F0828DE80FF11DBE
:10043000858D90E008958FEF9FEF0895FC01918DD9
:10044000228D892F90E0805C9F4F821B91098F73D2
:100450009927089585E991E00E941E0221E0892BE9
:1004600009F420E0822F089580E090E0892B29F0A4
:100470000E942A0281110C9400000895FC01A48DB1
:10048000A80FB92FB11DA35ABF4F2C91848D90E0B6
:1004900001968F739927848FA689B7892C93A08999
:1004A000B1898C91837080648C93938D848D981323
:1004B00006C00288F389E02D80818F7D80830895B6
:1004C000EF92FF920F931F93CF93DF93EC0181E0A4
:1004D000888F9B8D8C8D98131AC0E889F98980814B
:1004E00085FF15C09FB7F894EE89FF896083E8897E
:1004F000F98980818370806480839FBF81E090E070
:10050000DF91CF911F910F91FF90EF900895F62EFC
:100510000B8D10E00F5F1F4F0F731127E02E8C8D96
:100520008E110CC00FB607FCFACFE889F9898081DB
:1005300085FFF5CFCE010E943E02F1CFEB8DEC0F8F
:10054000FD2FF11DE35AFF4FF0829FB7F8940B8FF8
:10055000EA89FB8980818062CFCFCF93DF93EC0162
:10056000888D8823B9F0AA89BB89E889F9898C919B
:1005700085FD03C0808186FD0DC00FB607FCF7CF57
:100580008C9185FFF2CF808185FFEDCFCE010E9457
:100590003E02E9CFDF91CF910895E0918A01F09179
:1005A0008B01DC0114962D913C91159712968D913B
:1005B0009C91918380833383228308950895CF9300
:1005C000DF93EC018C819D812E813F8182179307FF
:1005D000B4F401969D838C830E948001688779879B
:1005E0008A879B878C819D81880F991FEA81FB8177
:1005F000E80FF91F80819181DF91CF9108951D82CD
:100600001C82EACF08950895CF93DF9300D000D0E5
:1006100000D0CDB7DEB726E0FC013296DE011196A0
:1006200001900D922A95E1F729813A814B815C81F5
:100630006D817E8180E090E026960FB6F894DEBF53
:100640000FBECDBFDF91CF910895EF92FF920F9330
:100650001F93CF93DF93EC01862F688379833B83CD
:100660002A835D834C831F830E831986188691E04D
:10067000E91AF108FB86EA860E9494008A810E94AA
:1006800094008C81DF91CF911F910F91FF90EF909B
:100690000C9494008F929F92AF92BF920F931F93EE
:1006A000CF93DF93CDB7DEB7A1970FB6F894DEBF37
:1006B0000FBECDBF19A2423008F44AE08E010F5D93
:1006C0001F4F842E912CB12CA12CA50194010E94C6
:1006D000F916E62FB901CA01EA3044F5E05DD80108
:1006E000EE938D01232B242B252B79F790E080E0CE
:1006F000109769F0FD0101900020E9F73197AF01F3
:100700004A1B5B0BBD0185E991E00E948E01A19619
:100710000FB6F894DEBF0FBECDBFDF91CF911F9112
:100720000F91BF90AF909F908F900895E95CD7CFC5
:1007300042E050E068E671E085E991E00C948E01BA
:100740000C94D513FC0180819181009711F00C94D9
:10075000D51308950C94D5130F931F93CF93DF9364
:100760008C0182E391E0D8018D939C93D0E0C0E0AE
:10077000F80182819381268137812C173D079CF0F7
:100780009E01220F331F820F931FDC018D919C91DC
:10079000009739F0DC01ED91FC910480F581E02DAA
:1007A00009952196E5CF009731F0DF91CF911F9108
:1007B0000F910C94D513DF91CF911F910F91089554
:1007C000CF93DF93EC010E94AC03CE01DF91CF9178
:1007D0000C94D5132AE131E0FC01318320830C9481
:1007E000AC03CF93DF93EC010E94EA03CE01DF91CB
:1007F000CF910C94D5130C94D5130C94D51382E09F
:1008000090E00E9439132EE331E0FC013183208314
:1008100008952F923F924F925F926F927F928F92A4
:100820009F92AF92BF92CF92DF92EF92FF920F937F
:100830001F93CF93DF9300D01F92CDB7DEB75C013B
:10084000FC01C680D78081E090E00E9439139B8331
:100850008A835C2C4D2C10E000E088248394912C3A
:10086000F1E0F983F501E680F780828593858E15A6
:100870009F050CF48CC084819581E816F90608F078
:10088000A9C080819181009709F4A4C08E0D9F1D9D
:10089000FC0180818B35C9F53801FFEF6F1A7F0AA3
:1008A00068147904F4F0880C991CC4010E9439136F
:1008B0001C01FC01AA81BB81CD012A813B81821BE5
:1008C000930B801791071CF48D918193F5CF4A818A
:1008D0005B814115510519F0CA010E94D5132A8286
:1008E0003B82EA81FB81E00FF11F5BE55083898148
:1008F000811178C09FEFC91AD90A83012FEFE21A3C
:10090000F20AF501F782E682ADCF8D3509F062C0BB
:100910000115110599F3EA81FB81E00FF11F319771
:1009200080818B3509F05AC0340175946794601644
:100930007106F4F0C3010E9439131C01FC01AA8165
:10094000BB81930121503109CD014A815B81841B18
:10095000950B821793071CF48D918193F5CF8A81B3
:100960009B81009711F00E94D51343012A823B829C
:10097000015011099FEFC91AD90A0115110509F093
:10098000BDCFEFEFEE1AFE0AF501F782E682852C65
:10099000942C56012A813B812115310519F0C9019A
:1009A0000E94D513C501B4010F900F900F90DF91F5
:1009B000CF911F910F91FF90EF90DF90CF90BF905C
:1009C000AF909F908F907F906F905F904F903F90EF
:1009D0002F9008950115110509F490CFFFEFCF1A5C
:1009E000DF0A8CCF83015E2C4F2C198287CF0E94A7
:1009F0005A190F931F93CF93DF938C01EB01FC01E6
:100A0000808191810097E1F068817981611571059C
:100A1000A9F0428153812C813D814217530770F028
:100A20000E947C198C819D81F801958384831D82AD
:100A30001C82DF91CF911F910F9108950E94D513D1
:100A400088819981F801918380838A819B81938336
:100A500082838C819D8195838483198218821B8275
:100A60001A82E5CF0F931F93CF93DF93EC01888118
:100A70009981009759F02A813B812617370730F07A
:100A800081E0DF91CF911F910F9108958B016F5FEE
:100A90007F4F0E949D18009759F0998388831B838C
:100AA0000A832C813D81232B59F7FC011082E8CF6A
:100AB00080E0E7CFEF92FF920F931F93CF93DF93E6
:100AC0006115710541F480E0DF91CF911F910F9185
:100AD000FF90EF90089541155105B1F07B01EC01B5
:100AE0000C811D81040F151FB8010E943205882357
:100AF00051F3288139818C819D81B701820F931F29
:100B00000E947C191D830C8381E0DECFEF92FF925F
:100B10000F931F93CF93DF93CDB7DEB72D970FB60B
:100B2000F894DEBF0FBECDBF7C01CB01BA012AE035
:100B30008E010F5F1F4FA8010E944915F801019017
:100B40000020E9F73197AF01401B510BB801C701F5
:100B50000E945A052D960FB6F894DEBF0FBECDBF8A
:100B6000DF91CF911F910F91FF90EF900895EF9239
:100B7000FF920F931F93CF93DF93CDB7DEB72897E4
:100B80000FB6F894DEBF0FBECDBF7C01CB014AE0AB
:100B90008E010F5F1F4FB8010E942915F8010190C7
:100BA0000020E9F73197AF01401B510BB801C70195
:100BB0000E945A0528960FB6F894DEBF0FBECDBF2F
:100BC000DF91CF911F910F91FF90EF900895FB015E
:100BD00001900020E9F73197AF01461B570B0C94A9
:100BE0005A05FB0144815581608171810C945A053D
:100BF000EF92FF920F931F93CF93DF93EC017B0152
:100C00008A01BA010E94320528813981811114C0FC
:100C10002115310519F0C9010E94D51319821882D6
:100C20001D821C821B821A82CE01DF91CF911F91FF
:100C30000F91FF90EF9008951D830C83B701C901B8
:100C40000E947C19F1CFFC01118210821382128262
:100C500015821482FB0101900020E9F73197AF0162
:100C6000461B570B0C94F8058F929F92AF92BF9240
:100C7000CF92DF92EF92FF920F931F93CF93DF9368
:100C8000CDB7DEB72C970FB6F894DEBF0FBECDBF41
:100C90006C014B016BE671E00E94230610E000E05E
:100CA000D40114968D919C911597081719070CF093
:100CB00083C01296ED91FC91C801880F991FE80F2F
:100CC000F91FE080F18060E771E0CE0107960E9495
:100CD0002306F70160817181CE0107960E94B70556
:100CE00062E771E0CE0107960E94E705D7011496EE
:100CF0006D917C91CE0107960E94B70562E771E085
:100D0000CE0107960E94E705F70162817381CE014B
:100D100007960E94B705B12CA12CD7011A968D9188
:100D20009C918A159B054CF162E771E0CE01079614
:100D30000E94E705C501880F991FD7011696ED910E
:100D4000FC91E80FF91F60817181DB01ED91FC914D
:100D50000680F781E02DCE0101960995BE016F5FF7
:100D60007F4FCE0107960E94F105CE0101960E94A9
:100D7000A203BFEFAB1ABB0AD0CF64E771E0CE018C
:100D800007960E94E705BE01695F7F4FC6010E947A
:100D9000F105CE0107960E94A203F401848195819A
:100DA0000197081719072CF462E771E0C6010E9449
:100DB000E7050F5F1F4F74CFC6012C960FB6F8944E
:100DC000DEBF0FBECDBFDF91CF911F910F91FF907E
:100DD000EF90DF90CF90BF90AF909F908F9008954D
:100DE000CF92DF92EF92FF920F931F93CF93DF93F7
:100DF00000D000D000D0CDB7DEB7E0918A01F091ED
:100E00008B01C080D180E280F38086E090E00E9478
:100E100039138C018CE491E0D80111969C938E9348
:100E20001396DC92CE9212971596FC92EE9214973E
:100E3000B801CE0101960E9434064D815E81698120
:100E40007A8185E991E00E948E010E949803CE018B
:100E500001960E94A2030115110541F0D801ED9100
:100E6000FC910084F185E02DC801099526960FB606
:100E7000F894DEBF0FBECDBFDF91CF911F910F91D0
:100E8000FF90EF90DF90CF900895CF93DF93EC0128
:100E900066E771E00E942306CE01DF91CF910895AD
:100EA000CF92DF92EF92FF920F931F93CF93DF9336
:100EB00000D000D000D0CDB7DEB78C016B016AE75F
:100EC00071E00E942306F12CE12CD60116968D913B
:100ED0009C918E159F053CF162E771E0C8010E946C
:100EE000E705C701880F991FD6011296ED91FC9175
:100EF000E80FF91F60817181DB01ED91FC910680A3
:100F0000F781E02DCE0101960995BE016F5F7F4FFD
:100F1000C8010E94F105CE0101960E94A203BFEF15
:100F2000EB1AFB0AD2CF64E771E0C8010E94E70523
:100F3000C80126960FB6F894DEBF0FBECDBFDF9175
:100F4000CF911F910F91FF90EF90DF90CF90089578
:100F5000CF92DF92EF92FF920F931F93CF93DF9385
:100F600000D000D000D0CDB7DEB78C016B016DE7AB
:100F700071E00E942306F12CE12CD60116968D918A
:100F80009C918E159F053CF162E771E0C8010E94BB
:100F9000E705C701880F991FD6011296ED91FC91C4
:100FA000E80FF91F60817181DB01ED91FC910680F2
:100FB000F781E02DCE0101960995BE016F5F7F4F4D
:100FC000C8010E94F105CE0101960E94A203BFEF65
:100FD000EB1AFB0AD2CF64E771E0C8010E94E70573
:100FE000C80126960FB6F894DEBF0FBECDBFDF91C5
:100FF000CF911F910F91FF90EF90DF90CF900895C8
:101000000F931F93CF93DF93EC018B0160E771E0A7
:101010000E942306F80160817181CE010E94B7050C
:1010200062E771E0CE010E94E705F80162817381F9
:10103000CE010E94B70562E771E0CE010E94E7058C
:10104000F80164817581CE010E94B70564E771E003
:10105000CE010E94E705CE01DF91CF911F910F9144
:101060000895EF92FF920F931F93CF93DF93CDB725
:10107000DEB768970FB6F894DEBF0FBECDBF8C0108
:101080007B0160E771E00E942306F70140855185EE
:1010900062857385C8010E94860562E771E0C80118
:1010A0000E94E70586E0F7013296DE011196019075
:1010B0000D928A95E1F786E0FE013196DE011796E2
:1010C00001900D928A95E1F786E0FE013796DE01E8
:1010D0001D9601900D928A95E1F7BE01635F7F4FE7
:1010E000CE0143960E940008BE016D5E7F4FC8018D
:1010F0000E94F105CE0143960E94A20362E771E0CF
:10110000C8010E94E705B701645F7F4FCE010D96CD
:101110000E940008BE01635F7F4FC8010E94F10575
:10112000CE010D960E94A20364E771E0C8010E94FF
:10113000E705C80168960FB6F894DEBF0FBECDBFB5
:10114000DF91CF911F910F91FF90EF900895EF9253
:10115000FF920F931F93CF93DF9300D000D000D066
:10116000CDB7DEB78C017B0160E771E00E942306FA
:10117000F7014085518562857385C8010E94860507
:1011800062E771E0C8010E94E705B7016E5F7F4F1B
:10119000CE0101960E940008BE016F5F7F4FC8011B
:1011A0000E94F105CE0101960E94A20364E771E05E
:1011B000C8010E94E705C80126960FB6F894DEBF65
:1011C0000FBECDBFDF91CF911F910F91FF90EF9098
:1011D00008950F931F93CF93DF93EC01FB018A01D6
:1011E000198218821B821A821D821C828617970719
:1011F00049F0608171816115710521F0448155814B
:101200000E94F805F801808191819F838E838081FF
:101210009181A281B38188879987AA87BB87DF9153
:10122000CF911F910F9108950F931F93CF93DF9349
:10123000CDB7DEB728970FB6F894DEBF0FBECDBF8F
:101240008C016AE671E0CE0101960E94230640E01F
:10125000F801268137818285938582179307ACF048
:10126000848195812817390768F5808191810097DD
:1012700049F1820F931FFC0180818B3521F08D3560
:1012800011F08C3201F5442351F18D819E8110E0E3
:1012900000E0892B39F089819A81009739F10E9409
:1012A00002158B01CE0101960E94A203C801289667
:1012B0000FB6F894DEBF0FBECDBFDF91CF911F9167
:1012C0000F91089580E08F83188641E050E0BE01C1
:1012D000695F7F4FCE0101960E945A0541E0F801F7
:1012E00086819781019697838683B2CF60E070E014
:1012F000CB01D7CFEF92FF920F931F93CF93DF9342
:10130000CDB7DEB762970FB6F894DEBF0FBECDBF84
:10131000AB01BC01CE0101960E94E908CE01019605
:101320000E9414097C01CE0101960E9414098C01CF
:10133000CE0101960E941409FE86ED86188B0F8758
:101340009A8B898BCE0101960E94A2032D853E8542
:101350004F85588969897A8980E090E062960FB656
:10136000F894DEBF0FBECDBFDF91CF911F910F91DB
:10137000FF90EF9008952F923F924F925F926F925D
:101380007F928F929F92AF92BF92CF92DF92EF9215
:10139000FF920F931F93CF93DF93CDB7DEB7C05863
:1013A000D1090FB6F894DEBF0FBECDBF4B016F96CB
:1013B0001FAE1EAE6F97FB01848195810197A196A8
:1013C0009FAF8EAFA197AE01435A5F4FCE01859676
:1013D0000E94E908CE0185960E940904512C412CF7
:1013E0006817790741F0FFEF4F1A5F0ACE01859623
:1013F0000E940904F5CF411480E458060CF083C024
:10140000C201880F991F0E943913E0968FAFE097B1
:10141000E1969FAFE197AE01435A5F4FB401CE0111
:1014200001960E94E908BE016F5F7F4FCE0185964D
:101430000E94F9048F8198859CA78BA789859A853E
:10144000AB85BC858DA79EA7AFA7B8ABCE01019693
:101450000E94A203E0969FADE097A2969FAFA2974D
:10146000E196EFADE197A396EFAFA397A9961FAED4
:101470001EAEA997A996EEACFFACA9974E145F04D7
:1014800009F4DEC2CE0185960E9409046D966CAF08
:101490007DAF8EAF9FAF6D97F401848195810797E3
:1014A00008F4B7C2AE01475A5F4FB401CE01499666
:1014B0000E94E908CE0149960E941409E5969FAF63
:1014C0008EAFE597CE0149960E941409E7969FAF2B
:1014D0008EAFE797CE0149960E941409E9969FAF17
:1014E0008EAFE997CE0149960E940904712C612CB8
:1014F0006817790759F0FFEF6F1A7F0ACE014996F6
:101500000E940904F5CF8FEF9FEF7DCF611480E437
:1015100078060CF07EC0C301880F991F0E94391312
:10152000E2968FAFE297E3969FAFE397AE01475AFB
:101530005F4FB401CE0101960E94E908BE016F5FC2
:101540007F4FCE0149960E94F9048F81988598A318
:101550008F8F89859A85AB85BC8589A39AA3ABA318
:10156000BCA3CE0101960E94A203CE0149960E941F
:101570001409CE0149960E941409CE0149960E9491
:101580001409E2969FADE297A6969FAFA697E396C1
:10159000EFADE397A796EFAFA797AB961FAE1EAE42
:1015A000AB97AB96EEACFFACAB976E147F0409F42F
:1015B000FEC1CE0149960E94090469966CAF7DAFC9
:1015C0008EAF9FAF6997F40184819581039708F4EA
:1015D000D9C18E01035F1F4FAE014B5A5F4FB4015B
:1015E000C8010E94E908C8010E941409EB969FAF48
:1015F0008EAFEB97C8010E940904312C212C86176D
:10160000970751F0FFEF2F1A3F0AC8010E94090403
:10161000F6CF8FEF9FEF82CF211480E438060CF0D5
:101620001EC1C101880F991F0E943913AE968FAF5A
:10163000AE97AF969FAFAF97AE014B5A5F4FB401D5
:101640008E010F5F1F4FC8010E94E9087E019DE0D7
:10165000E90EF11CB801C7010E94F9048F81988539
:101660009C8B8B8B89859A85AB85BC858D8B9E8B5E
:10167000AF8BB88FC8010E94A203C7010E94140952
:10168000AE96EFADAE97A496EFAFA497AF96FFAD31
:10169000AF97A596FFAFA597AD961FAE1EAEAD97BF
:1016A000EC96EFAEEC97ED96FFAEED975801AD9648
:1016B000EEACFFACAD972E143F0409F40FC1EC96CD
:1016C0008FADEC97ED969FADED970E94090465965E
:1016D0006CAF7DAF8EAF9FAF6597F401848195812C
:1016E0000B9708F4E4C0AE014F5A5F4FB401C50137
:1016F0000E94E908C5010E9414096C01C5010E94FD
:10170000090461966CAF7DAF8EAF9FAF6197BE014C
:10171000635B7F4FC4010E947A0924962FAF249700
:1017200025963FAF259726964FAF269727965FAF12
:10173000279728966FAF289729967FAF2997C501DD
:101740000E9409042D966CAF7DAF8EAF9FAF2D9791
:101750002D962EAD3FAD2D970D2C000CEE08FF08F9
:1017600086E0FE01ED5BFF4FDE012617370709F427
:1017700079C0D79601900D928A95E1F7BE01675B1B
:101780007F4FC4010E947A0929AB3AAB4BAB5CABEB
:101790006DAB7EAB8EE190E00E9439138C01AFA956
:1017A000B8AD89AD9AADEF969FAF8EAFEF976BADA9
:1017B0007CAD49A95AA92BA93CA9EDA9FEA9C158FC
:1017C000DF4FF983E883CF57D040F801B383A2837A
:1017D0009583848377836683C086D186E286F38689
:1017E0008EE0E82E81E0F82EF182E0825587448772
:1017F00037872687C158DF4F88819981CF57D040DE
:10180000918B808BB18FA08FEF96EEACFFACEF97F2
:10181000F38EE28E758F648F4A1B5B0B538B428B6A
:101820002E193F09358B248B861B970B978B868B44
:10183000C5010E94A203A596EEADFFADA597019349
:101840001193A596FFAFEEAFA597AD968EAD9FAD68
:10185000AD970196AD969FAF8EAFAD9728CF8FEF26
:101860009FEFE2CED19601900D928A95E1F78CE040
:1018700090E00E9439138C0186E0FE01F196DE01B2
:10188000DD9601900D928A95E1F7D80186E291E00C
:101890008D939D9386E0FE01FD9601900D928A95B1
:1018A000E1F7F801C086D186E286F386C1CF8CE0ED
:1018B00090E00E9439138C0196E2E92E91E0F92E16
:1018C000F801F182E082138212821582148217825B
:1018D00016821086118612861386ADCF81010150C3
:1018E0001109EB96EEACFFACEB978CE090E0EF28A3
:1018F00081F50E9439137C0182E391E0F701918325
:101900008083AE968FADAE978283AF969FADAF9733
:10191000938315821482178306831086118612869C
:101920001386CE010D960E94A203A796EEADFFADE1
:10193000A797E192F192A796FFAFEEAFA797AB966C
:101940008EAD9FADAB970196AB969FAF8EAFAB9729
:1019500028CE0E9439137C01AE968FADAE97F70169
:101960008283AF969FADAF979383158214821783BE
:10197000068310861186128613868AE191E0918390
:101980008083CFCF8CE090E00E9439137C0182E30A
:1019900091E0F70191838083138212821582148271
:1019A000178216821086118612861386BECF8CE0AF
:1019B00090E00E9439136C017301E2960FADE2973B
:1019C000E3961FADE397E9962EAD3FADE997E79615
:1019D0004EAD5FADE797E5966EAD7FADE5970E94A2
:1019E0002503CE0149960E94A203A396EEADFFAD5A
:1019F000A397C192D192A396FFAFEEAFA397A996FA
:101A00008EAD9FADA9970196A9969FAF8EAFA9976E
:101A100031CD82E090E00E9439138C018CE090E09F
:101A20000E9439136C01EE24E394F12C30E020E0A5
:101A300050E040E070E060E0C6010E942503D5CF91
:101A400086E090E00E9439138C018CE491E0F8016B
:101A500091838083E096EFACE097E282E196FFAC61
:101A6000E197F38255824482CE0185960E94A203BB
:101A7000C801C058DF4F0FB6F894DEBF0FBECDBF10
:101A8000DF91CF911F910F91FF90EF90DF90CF905A
:101A9000BF90AF909F908F907F906F905F904F908E
:101AA0003F902F900895CF92DF92EF92FF92CF93C5
:101AB000DF93EC01CE80DF808FEFC81AD80A0D2C9F
:101AC000000CEE08FF081C141D041E041F04FCF487
:101AD0000E94AA14A70196010E9490166B010E9411
:101AE0008001688779878A879B87DD82CC82CC0CCE
:101AF000DD1C8A819B81C80ED91EF60180819181EF
:101B0000DF91CF91FF90EF90DF90CF900895C12C9F
:101B1000D12C7601E4CF4F925F926F927F928F9299
:101B20009F92AF92BF92CF92DF92EF92FF920F936C
:101B30001F93CF93DF93CDB7DEB768970FB6F894B6
:101B4000DEBF0FBECDBF8C01CB01BA010E9497153D
:101B50006B017C01F80160857185828593850E9407
:101B600095159B01AC01C701B6010E9497172B0187
:101B70003C0186E0F8013296DE01119601900D924B
:101B80008A95E1F7F80166897789072E000C880BA2
:101B9000990B0E949715A30192010E94D2156B0127
:101BA0007C016D817E81072E000C880B990B0E94B1
:101BB00097159B01AC01C701B6010E942B170E942B
:101BC0003F186B017C0186E0F8013296DE01179622
:101BD00001900D928A95E1F7F80164897589072EC5
:101BE000000C880B990B0E949715A30192010E948B
:101BF000D2154B015C0169857A85072E000C880B94
:101C0000990B0E9497159B01AC01C501B4010E947C
:101C10002B170E943F184B015C0186E0F8013296B9
:101C2000DE011D9601900D928A95E1F7F801628917
:101C30007389072E000C880B990B0E949715A3013E
:101C400092010E94D2152B013C016D857E85072EE5
:101C5000000C880B990B0E9497159B01AC01C301E6
:101C6000B2010E942B170E943F180E940918F80128
:101C7000718F608FC501B4010E940918F801738F3C
:101C8000628FC701B6010E940918F801758F648F31
:101C900086E07896DE01539601900D928A95E1F7E1
:101CA0002B893C894D895E896F89788D80E090E031
:101CB00068960FB6F894DEBF0FBECDBFDF91CF910F
:101CC0001F910F91FF90EF90DF90CF90BF90AF905A
:101CD0009F908F907F906F905F904F9008951F928C
:101CE0000F920FB60F9211242F933F938F939F93D0
:101CF000AF93BF9380918D0190918E01A0918F0140
:101D0000B091900130918C0123E0230F2D3758F5CD
:101D10000196A11DB11D20938C0180938D0190939C
:101D20008E01A0938F01B0939001809191019091C9
:101D30009201A0919301B09194010196A11DB11D52
:101D40008093910190939201A0939301B093940199
:101D5000BF91AF919F918F913F912F910F900FBEA7
:101D60000F901F90189526E8230F0296A11DB11D14
:101D7000D2CF1F920F920FB60F9211242F933F9341
:101D80004F935F936F937F938F939F93AF93BF9383
:101D9000EF93FF9385E991E00E943E02FF91EF915E
:101DA000BF91AF919F918F917F916F915F914F9173
:101DB0003F912F910F900FBE0F901F9018951F927B
:101DC0000F920FB60F9211242F938F939F93EF933F
:101DD000FF93E091A501F091A6018081E091AB0114
:101DE000F091AC0182FD1BC090818091AE018F5FAC
:101DF0008F732091AF01821741F0E091AE01F0E0C6
:101E0000EB56FE4F958F8093AE01FF91EF919F911E
:101E10008F912F910F900FBE0F901F90189580817A
:101E2000F4CFE5E9F1E01382128288EE93E0A0E0BE
:101E3000B0E084839583A683B7838AE591E091839C
:101E4000808385EC90E09587848784EC90E0978789
:101E5000868780EC90E0918B808B81EC90E0938B77
:101E6000828B82EC90E0958B848B86EC90E0978B54
:101E7000868B118E128E138E148E6AE671E082E3C9
:101E800092E00C942306CF93DF93CDB7DEB766972D
:101E90000FB6F894DEBF0FBECDBF789484B58260D4
:101EA00084BD84B5816084BD85B5826085BD85B5FE
:101EB000816085BD80916E00816080936E0010927C
:101EC00081008091810082608093810080918100F7
:101ED0008160809381008091800081608093800088
:101EE0008091B10084608093B1008091B0008160E6
:101EF0008093B00080917A00846080937A00809112
:101F00007A00826080937A0080917A008160809369
:101F10007A0080917A00806880937A001092C100E4
:101F2000E091A501F091A60182E08083E091A101FA
:101F3000F091A2011082E091A301F091A4018FEC35
:101F400080831092AD01E091A901F091AA0186E091
:101F50008083E091A701F091A80180818061808356
:101F6000E091A701F091A801808188608083E091D1
:101F7000A701F091A801808180688083E091A7018A
:101F8000F091A80180818F7D808308E610E0F80140
:101F90006491662341F085E991E00E9460020F5F41
:101FA0001F4F892BA1F70E9498038CE090E00E94BC
:101FB00039135C0146E2842E41E0942EDC01119637
:101FC0009C928E92CC24CA94D12C1396DC92CE9201
:101FD000129715961C921E92149717961C921E9299
:101FE000169768E8462E63E1562E612C712CFC0191
:101FF00040865186628673868CE090E00E94391399
:102000007C01DC0111969C928E9213961C921E927A
:10201000129715961C921E9214971796DC92CE92E8
:102020001697FC0140865186628673868CE090E0AC
:102030000E9439138C01DC0111969C928E921396AA
:10204000DC92CE9212971596DC92CE921497179648
:10205000DC92CE921697FC0140865186628673868A
:1020600086E090E00E9439131C01DC011196BC92BD
:10207000AE921396FC92EE92129715961C930E93C5
:1020800014978CE090E00E9439138C01FC0133829C
:1020900022821582148272E0A72EB12CB782A6820A
:1020A00010861186128613868AE191E091838083DF
:1020B00082E090E00E9439131C01FC01118300832F
:1020C0008CE090E00E9439135C01EE24E394F12C43
:1020D000810129E030E04AE050E06BE070E00E94CE
:1020E00025038CE090E00E9439138C01DC011196ED
:1020F0009C928E921396DC92CE92129715961C9219
:102100001E92149717961C921E921697FC014086F9
:102110005186628673868CE090E00E9439137C01C0
:10212000DC0111969C928E921396DC92CE921297BD
:102130001596DC92CE9214971796DC92CE92169753
:10214000FC01408651866286738684E090E00E949E
:1021500039136C01DC0111961C930E931396FC92BB
:10216000EE9212978CE090E00E9439137C0182E39A
:1021700091E0F70191838083D382C2821582148219
:1021800081E090E0978386831086118612861386FD
:1021900082E090E00E9439138C01FC01F182E08220
:1021A0008CE090E00E9439136C01EE24E394F12C52
:1021B00023E030E045E050E066E070E00E94250357
:1021C00084E090E00E9439138C01DC011196BC92EE
:1021D000AE921396DC92CE92129784E090E00E9429
:1021E0003913FC0111830083A2E08A2E912C938283
:1021F000828290938B0180938A0181E090E00E941B
:10220000391390938901809388018E010F5F1F4FCE
:1022100030E0232E30E0332EE0908A01F0908B01E5
:10222000E114F10409F4D2C00E9480012B013C01A9
:10223000D12CC12CD70112968D919C911397C81661
:10224000D9060CF0C3C04601880C991C9E8A8D8A61
:10225000ED91FC91E80DF91DA081B18118968D9149
:102260009C911997880F991F1696ED91FC91E80F94
:10227000F91FA081B18114968D919C911597880FBB
:10228000991F1296ED91FC911397E80FF91F808129
:102290009181FC01208531854285538518968D906A
:1022A0009D90AD90BC901B97280D391D4A1D5B1D5C
:1022B000241535054605570540F4ED91FC9111971D
:1022C0000190F081E02DCD010995D701ED91FC91B0
:1022D0008D889E88E80DF91DA081B18118962D91F9
:1022E0003C911997220F331F1696ED91FC91E20F46
:1022F000F31F0190F081E02D2085318542855385C3
:1023000053014201821A930AA40AB50A8D869E8659
:10231000AF86B88ADC01ED91FC910190F081E02D4F
:10232000B501A401099529833A834B835C836D83AE
:102330007E83F70180819181AD88BE88A80EB91E89
:10234000D501AD90BC9069817A81F50180810E94B0
:10235000FF006D817E81D50112968C910E94FF0055
:102360006B817C81F50184810E94FF00FFEFCF1A11
:10237000DF0A60CFB80182E392E00E94F105C80154
:102380000E94A2030E945B014B015C016AE0C62E21
:10239000D12CE12CF12C0E945B01681979098A0982
:1023A0009B09683E734081059105A8F321E0C21A9C
:1023B000D108E108F10838EE830E33E0931EA11C2A
:1023C000B11CC114D104E104F10429F785E991E0BD
:1023D0000E941E02892BA1F06AE671E0C8010E94EA
:1023E00023060E94DE0197FDC5CF8F83188641E04A
:1023F00050E0BE01695F7F4FC8010E945A05F1CFCE
:10240000C0903602D0903702C114D104E1F1A090FF
:102410003202B0903302D5018C918823A1F160E89B
:1024200071E0C5010E947319892BC9F580913802AA
:1024300090913902009711F48CE392E06801C81A78
:10244000D90A0D2C000CEE08FF084AE0C701B601BE
:10245000F7FE0DC06DE285E991E00E9460026627FB
:102460007727CB016C197D098E099F094AE00E94EC
:102470004A030E94980350E040E06AE671E082E37C
:1024800092E00E94F8052114310409F4C5CE0E949F
:102490002A02882309F4C0CE0E940000B9CE60E26F
:1024A00070E0C5010E946819009739F07C01EA18B4
:1024B000FB08BFEFEB16FB0609F476016AE671E054
:1024C000CE0107960E942306809136029091370232
:1024D000009741F18E159F0508F47C01E0913202CE
:1024E000F0913302EE0DFF1DD08010826091320218
:1024F000709133026115710509F461C0FB0101900F
:102500000020E9F73197AF01461B570BCE01079624
:102510000E94F8058091320290913302E80EF91E74
:10252000F701D0828B859C85892B09F487C0EF80C9
:10253000F88464E871E0C7010E947319892B09F0DF
:1025400082C080908A0190908B01F12CE12CD40103
:102550008D919C91119712962D913C91E216F30664
:102560000CF045C09701220F331F820F931FFC010F
:10257000C080D180C114D104B1F1B12CA12CD601FD
:1025800016968D919C9117971A962D913C912A152C
:102590003B0514F19501220F331F820F931FFC019D
:1025A00080819181009739F0DC01ED91FC910480EC
:1025B000F581E02D0995BFEFAB1ABB0AE0CF8F8103
:1025C0009885009711F00E94D51318861F821C86EB
:1025D0001B861A8619869ECF009711F00E94D5138C
:1025E000C6010E94D513EFEFEE1AFE0AB0CF009796
:1025F00011F00E94D5138CE4882E81E0982E9A82E7
:1026000089821C821B821E821D8262E372E0C801E5
:102610000E94BB097C01D701ED91FC910280F381FE
:10262000E02DC7010995E114F10441F0D701ED91C6
:10263000FC910084F185E02DC7010995CE01079634
:102640000E94A20318CF66E771E0C7010E947319C8
:10265000892BA1F782E090E00E9439137C01EEE320
:10266000F1E0DC01ED93FC93D6CF82E392E00C9491
:10267000A2030F931F93CF93DF938230910510F441
:1026800082E090E0E0913A02F0913B0230E020E0FD
:10269000B0E0A0E0309799F42115310509F44AC063
:1026A000281B390B24303105D8F58A819B816115AF
:1026B000710589F1FB0193838283FE0111C0408182
:1026C00051810281138148175907E0F048175907D3
:1026D00099F4109761F012960C93129713961C932D
:1026E0003296CF01DF91CF911F910F910895009302
:1026F0003A0210933B02F4CF2115310551F04217F5
:10270000530738F0A901DB019A01BD01DF01F8018F
:10271000C1CFEF01F9CF90933B0280933A02CDCF26
:10272000FE01E20FF31F8193919322503109398307
:102730002883D7CF2091380230913902232B41F4DE
:102740002091020130910301309339022093380225
:1027500020910001309101012115310541F42DB77F
:102760003EB74091040150910501241B350BE091C7
:102770003802F0913902E217F307A0F42E1B3F0B49
:102780002817390778F0AC014E5F5F4F24173507E3
:1027900048F04E0F5F1F50933902409338028193E7
:1027A00091939FCFF0E0E0E09CCFCF93DF93009731
:1027B000E9F0FC01329713821282A0913A02B091A3
:1027C0003B02ED0130E020E01097A1F4208131813F
:1027D000820F931F20913802309139022817390750
:1027E00009F061C0F0933902E0933802DF91CF9194
:1027F0000895EA01CE17DF07E8F54A815B819E0163
:1028000041155105B1F7E901FB83EA8349915991DB
:10281000C40FD51FEC17FD0761F4808191810296EA
:10282000840F951FE90199838883828193819B831B
:102830008A83F0E0E0E012968D919C9113970097C7
:10284000B9F52D913C911197CD010296820F931FFE
:1028500020913802309139022817390739F630971C
:1028600051F510923B0210923A02B0933902A093B4
:102870003802BCCFD383C28340815181840F951F1E
:10288000C817D90761F44E5F5F4F88819981480F5F
:10289000591F518340838A819B81938382832115B1
:1028A000310509F0B0CFF0933B02E0933A029ECF9E
:1028B000FD01DC01C0CF13821282D7CF8F929F928D
:1028C000AF92BF92CF92DF92EF92FF92CF93DF93BE
:1028D000EC01688179818A819B816115710581058F
:1028E000910521F464E279ED8BE597E02DE133EF7A
:1028F00041E050E00E94901649015A019B01AC0151
:10290000A7EAB1E40E94AF166B017C01ACEEB4EF14
:10291000A50194010E94BD16C60ED71EE81EF91E21
:10292000F7FE06C081E0C81AD108E10880E8F80A7D
:10293000C882D982EA82FB82C701B6019F77DF9104
:10294000CF91FF90EF90DF90CF90BF90AF909F908E
:102950008F9008958F929F92AF92BF92CF92DF9205
:10296000EF92FF926091060170910701809108013A
:1029700090910901611571058105910521F464E2C9
:1029800079ED8BE597E02DE133EF41E050E00E94D7
:10299000901649015A019B01AC01A7EAB1E40E94DB
:1029A000AF166B017C01ACEEB4EFA50194010E945F
:1029B000BD16C60ED71EE81EF91EF7FE06C081E042
:1029C000C81AD108E10880E8F80AC0920601D0923E
:1029D0000701E0920801F0920901C701B6019F7753
:1029E000FF90EF90DF90CF90BF90AF909F908F902F
:1029F00008956093060170930701809308019093F6
:102A0000090108951F93FC0199278827BC01E894C8
:102A100011911032E9F3193010F01E30C8F31B3257
:102A200051F01D3249F4689406C00E943415610FBC
:102A3000711D811D911D119110531A30B0F33EF498
:102A400090958095709561957F4F8F4F9F4F1F9107
:102A50000895BB274A3031F4992322F4BDE29095C2
:102A600081959F4F0C946C15592F482F372F262F87
:102A7000660F771F881F991F660F771F881F991F82
:102A8000620F731F841F951F660F771F881F991F82
:102A90000895BB27FA01A62F6217710581059105DC
:102AA000330B30FB66F0AA27660F771F881F991F2C
:102AB000AA1FA21710F0A21B63953850A9F7A05DBA
:102AC000AA3308F0A95DA19336F7B111B193108232
:102AD000CA010C948515BB27FB015527AA27880F2F
:102AE000991FAA1FA41710F0A41B83955051B9F782
:102AF000A05DAA3308F0A95DA193009779F7B11101
:102B0000B1931192CB010C948515DC01FC01672F68
:102B100071917723E1F7329704C07C916D937083B4
:102B20006291AE17BF07C8F30895E89409C097FBF8
:102B30003EF490958095709561957F4F8F4F9F4F94
:102B40009923A9F0F92F96E9BB279395F6958795D8
:102B500077956795B795F111F8CFFAF4BB0F11F49B
:102B600060FF1BC06F5F7F4F8F4F9F4F16C0882342
:102B700011F096E911C0772321F09EE8872F762F78
:102B800005C0662371F096E8862F70E060E02AF0B9
:102B90009A95660F771F881FDAF7880F96958795A5
:102BA00097F908950E94E5150C9456160E94481650
:102BB00038F00E944F1620F0952311F00C943F1628
:102BC0000C94451611240C948A160E94671670F313
:102BD000959FC1F3950F50E0551F629FF001729FC2
:102BE000BB27F00DB11D639FAA27F00DB11DAA1FD1
:102BF000649F6627B00DA11D661F829F2227B00D1E
:102C0000A11D621F739FB00DA11D621F839FA00DA8
:102C1000611D221F749F3327A00D611D231F849FF8
:102C2000600D211D822F762F6A2F11249F5750404F
:102C30009AF0F1F088234AF0EE0FFF1FBB1F661FCA
:102C4000771F881F91505040A9F79E3F510580F093
:102C50000C943F160C948A165F3FE4F3983ED4F32D
:102C6000869577956795B795F795E7959F5FC1F737
:102C7000FE2B880F911D9695879597F9089597F9E2
:102C80009F6780E870E060E008959FEF80EC089512
:102C900000240A941616170618060906089500243B
:102CA0000A9412161306140605060895092E0394B5
:102CB000000C11F4882352F0BB0F40F4BF2B11F429
:102CC00060FF04C06F5F7F4F8F4F9F4F089557FD88
:102CD0009058440F551F59F05F3F71F04795880F8A
:102CE00097FB991F61F09F3F79F087950895121621
:102CF00013061406551FF2CF4695F1DF08C01616CD
:102D000017061806991FF1CF86957105610508947D
:102D10000895E894BB2766277727CB0197F9089594
:102D2000052E97FB1EF400940E94A71657FD07D0AE
:102D30000E94F91607FC03D04EF40C94A716509588
:102D40004095309521953F4F4F4F5F4F0895909597
:102D50008095709561957F4F8F4F9F4F08950E948A
:102D60001B17A59F900DB49F900DA49F800D911DE2
:102D700011240895B7FF0C94AF160E94AF16821B62
:102D8000930B08952F923F924F925F926F927F9292
:102D90008F929F92AF92BF92CF92DF92EF92FF926B
:102DA0000F931F93CF93DF93CDB7DEB7CA1BDB0B17
:102DB0000FB6F894DEBF0FBECDBF09942A883988BC
:102DC00048885F846E847D848C849B84AA84B984C3
:102DD000C884DF80EE80FD800C811B81AA81B981CF
:102DE000CE0FD11D0FB6F894DEBF0FBECDBFED01E3
:102DF0000895A1E21A2EAA1BBB1BFD010DC0AA1F3C
:102E0000BB1FEE1FFF1FA217B307E407F50720F053
:102E1000A21BB30BE40BF50B661F771F881F991FCE
:102E20001A9469F760957095809590959B01AC0117
:102E3000BD01CF010895A29FB001B39FC001A39F20
:102E4000700D811D1124911DB29F700D811D1124E3
:102E5000911D08955058BB27AA270E9442170C9431
:102E600056160E94481638F00E944F1620F039F48A
:102E70009F3F19F426F40C9445160EF4E095E7FBF9
:102E80000C943F16E92F0E94671658F3BA17620791
:102E900073078407950720F079F4A6F50C9489163A
:102EA0000EF4E0950B2EBA2FA02D0B01B901900165
:102EB0000C01CA01A0011124FF27591B99F0593FA9
:102EC00050F4503E68F11A16F040A22F232F342FF1
:102ED0004427585FF3CF469537952795A795F0403F
:102EE0005395C9F77EF41F16BA0B620B730B840B54
:102EF000BAF09150A1F0FF0FBB1F661F771F881F0C
:102F0000C2F70EC0BA0F621F731F841F48F4879563
:102F100077956795B795F7959E3F08F0B0CF939555
:102F2000880F08F09927EE0F9795879508950E94CE
:102F3000AB170C9456160E944F1658F00E94481674
:102F400040F029F45F3F29F00C943F1651110C9486
:102F50008A160C9445160E94671668F39923B1F3FC
:102F6000552391F3951B550BBB27AA2762177307AF
:102F7000840738F09F5F5F4F220F331F441FAA1F43
:102F8000A9F335D00E2E3AF0E0E832D091505040FF
:102F9000E695001CCAF72BD0FE2F29D0660F771FAD
:102FA000881FBB1F261737074807AB07B0E809F093
:102FB000BB0B802DBF01FF2793585F4F3AF09E3F18
:102FC000510578F00C943F160C948A165F3FE4F399
:102FD000983ED4F3869577956795B795F7959F5F5B
:102FE000C9F7880F911D9695879597F90895E1E0A7
:102FF000660F771F881FBB1F621773078407BA0706
:1030000020F0621B730B840BBA0BEE1F88F7E09560
:1030100008950E9410186894B1110C948A160895AE
:103020000E946F1688F09F5798F0B92F9927B751D3
:10303000B0F0E1F0660F771F881F991F1AF0BA955C
:10304000C9F714C0B13091F00E948916B1E008951B
:103050000C948916672F782F8827B85F39F0B93F0D
:10306000CCF3869577956795B395D9F73EF490950F
:103070008095709561957F4F8F4F9F4F08950E9467
:103080007F1890F09F3748F4911116F00C948A162F
:1030900060E070E080E89FEB089526F41B16611D48
:1030A000711D811D0C9456180C947118882371F4AD
:1030B000772321F09850872B762F07C0662311F4D1
:1030C00099270DC09051862B70E060E02AF09A9508
:1030D000660F771F881FDAF7880F9695879597F9FF
:1030E00008959F3F31F0915020F48795779567952B
:1030F000B795880F911D9695879597F908950E9429
:103100006F16A0F0BEE7B91788F4BB279F3860F4AC
:103110001616B11D672F782F8827985FF7CF8695F1
:1031200077956795B11D93959639C8F30895EE0F7D
:10313000FF1F0590F491E02D0994B0E0A0E0E3EAD0
:10314000F8E10C94C4168C01009751F4CB010E9455
:1031500039138C01C801CDB7DEB7E0E10C94E0165D
:10316000FC01E60FF71F9C0122503109E217F3071B
:1031700008F49DC0D901CD91DC911197C617D707EE
:1031800098F0C530D10530F3CE0104978617970724
:1031900008F3C61BD70B2297C193D1936D937C93F1
:1031A000CF010E94D513D6CF5B01AC1ABD0A4C01EA
:1031B0008C0E9D1EA0913A02B0913B02512C412CE5
:1031C000F12CE12C109731F5809138029091390261
:1031D0008815990509F05CC04616570608F058C0D6
:1031E0008091000190910101009741F48DB79EB745
:1031F0004091040150910501841B950BE817F907D4
:1032000008F055C0F0933902E0933802F901718358
:103210006083A0CF8D919C91119712966C9012971C
:1032200013967C901397A815B90559F56C0142E0E7
:10323000C40ED11CCA14DB0420F1AC014A195B098D
:10324000DA011296159780F062827382518340836F
:10325000D9016D937C93E114F10471F0D7011396B9
:10326000FC93EE93129776CF22968C0F9D1FF90157
:1032700091838083F301EFCFF0933B02E0933A0216
:1032800069CF4816590608F42C017D01D3019ACF65
:10329000CB010E9439137C01009749F0AE01B801BF
:1032A0000E945F19C8010E94D513870153CF10E017
:1032B00000E050CF81E090E0F8940C948319FB017A
:1032C000DC0102C001900D9241505040D8F70895A2
:1032D000FC018191861721F08823D9F79927089559
:1032E0003197CF010895FB01DC018D910190801988
:1032F0000110D9F3990B0895FB01DC0101900D92A7
:103300000020E1F7089510E0C9E6D0E004C0FE0116
:103310000E9497182196CA36D107C9F7F894FFCFB3
:1033200000003C02800001000000000000008B0D46
:103330000303FB03310800000000530DEA03F1030F
:10334000A8070000000004030203FD03A708000013
:103350000000DF02AC03E003500700000000FF03A1
:10336000F0064507DE02A00300000000BB09CD0205
:1033700034068C01AA030000000060028E01BB012C
:10338000AD021E02CA0110020D0A0053455420006E
:103390005B002C005D00474554005B30005B310052
:0833A00052414D005345540059
:00000001FF
