:100000000C9462000C948A000C948A000C948A0070
:100010000C948A000C948A000C948A000C948A0038
:100020000C948A000C948A000C948A000C948A0028
:100030000C948A000C948A000C948A000C948A0018
:100040000C9401040C948A000C9471040C944B04DD
:100050000C948A000C948A000C948A000C948A00F8
:100060000C948A000C948A000000000023002600F3
:10007000290000000000240027002A0000000000E2
:10008000250028002B0004040404040404040202D4
:100090000202020203030303030301020408102007
:1000A0004080010204081020010204081020000012
:1000B0000008000201000003040700000000000027
:1000C0000000320811241FBECFEFD8E0DEBFCDBF45
:1000D00011E0A0E0B1E0E6E4FAE102C005900D9283
:1000E000A635B107D9F722E0A6E5B1E001C01D921F
:1000F000A430B207E1F710E0C2E6D0E004C02197D7
:10010000FE010E94F60BC136D107C9F70E94A30475
:100110000C94210D0C940000833081F028F4813080
:1001200099F08230A9F008958730A9F08830C9F09D
:100130008430B1F4809180008F7D03C08091800075
:100140008F7780938000089584B58F7784BD08955C
:1001500084B58F7DFBCF8091B0008F778093B00006
:1001600008958091B0008F7DF9CF1F93CF93DF93D7
:10017000282F30E0F901E255FF4F8491F901E6564E
:10018000FF4FD491F901EA57FF4FC491CC23A9F056
:10019000162F81110E948C00EC2FF0E0EE0FFF1F54
:1001A000E458FF4FA591B4918FB7F894EC911111D9
:1001B00008C0D095DE23DC938FBFDF91CF911F91D4
:1001C0000895DE2BF8CFCF93DF9390E0FC01E65645
:1001D000FF4F24918A579F4FFC0184918823D1F0CF
:1001E00090E0880F991FFC01EE58FF4FA591B49144
:1001F000FC01E458FF4FC591D49161110EC09FB727
:10020000F8948C91E22FE0958E238C932881E22341
:10021000E8839FBFDF91CF9108958FB7F894EC9159
:10022000E22BEC938FBFF6CF1F93CF93DF93182F62
:10023000EB0161E00E94E300209739F460E0812F38
:10024000DF91CF911F910C94B500CF3FD10511F4F0
:1002500061E0F5CFE12FF0E0E255FF4FE491E330AC
:1002600031F140F4E130B1F0E230E1F0C038D105D5
:100270007CF7E4CFE73029F1E83059F1E430B1F709
:1002800080918000806280938000D0938B00C09327
:100290008A0004C084B5806884BDC7BDDF91CF915A
:1002A0001F91089584B5806284BDC8BDF7CF809149
:1002B0008000806880938000D0938900C09388007C
:1002C000EDCF8091B00080688093B000C093B30000
:1002D000E5CF8091B00080628093B000C093B400FD
:1002E000DDCF2FB7F8946091FC017091FD018091F2
:1002F000FE019091FF012FBF0895AF92BF92CF9260
:10030000DF92EF92FF920F931F93CF93DF936C01D5
:100310007B018B01040F151FEB015E01AE18BF08B6
:10032000C017D10759F06991D601ED91FC91019068
:10033000F081E02DC6010995892B79F7C501DF9180
:10034000CF911F910F91FF90EF90DF90CF90BF90D2
:10035000AF900895FC01538D448D252F30E0842FFC
:1003600090E0821B930B541710F0CF9608950197DD
:100370000895FC01918D828D981761F0A28DAE0FCA
:10038000BF2FB11D5D968C91928D9F5F9F73928F51
:1003900090E008958FEF9FEF0895FC01918D828D7D
:1003A000981731F0828DE80FF11D858D90E008954A
:1003B0008FEF9FEF0895FC01918D228D892F90E0A2
:1003C000805C9F4F821B91098F739927089586E562
:1003D00091E00E94DB0121E0892B09F420E0822FCB
:1003E000089580E090E0892B29F00E94E7018111B7
:1003F0000C9400000895FC01A48DA80FB92FB11D25
:10040000A35ABF4F2C91848D90E001968F7399274A
:10041000848FA689B7892C93A089B1898C91837028
:1004200080648C93938D848D981306C00288F38921
:10043000E02D80818F7D80830895EF92FF920F934E
:100440001F93CF93DF93EC0181E0888F9B8D8C8D80
:1004500098131AC0E889F989808185FF15C09FB774
:10046000F894EE89FF896083E889F9898081837037
:10047000806480839FBF81E090E0DF91CF911F91E6
:100480000F91FF90EF900895F62E0B8D10E00F5F07
:100490001F4F0F731127E02E8C8D8E110CC00FB6DD
:1004A00007FCFACFE889F989808185FFF5CFCE0175
:1004B0000E94FB01F1CFEB8DEC0FFD2FF11DE35AF4
:1004C000FF4FF0829FB7F8940B8FEA89FB898081F8
:1004D0008062CFCFCF93DF93EC01888D8823B9F072
:1004E000AA89BB89E889F9898C9185FD03C080813F
:1004F00086FD0DC00FB607FCF7CF8C9185FFF2CFBC
:10050000808185FFEDCFCE010E94FB01E9CFDF9115
:10051000CF910895089508950895CF93DF93EC0146
:100520008C819D812E813F8182179307B4F40196BF
:100530009D838C830E947101688779878A879B8756
:100540008C819D81880F991FEA81FB81E80FF91F3B
:1005500080819181DF91CF9108951D821C82EACF25
:100560000895CF93DF9300D000D000D0CDB7DEB791
:10057000DC011296ED91FC9186E0DE01119601906E
:100580000D928A95E1F729813A814B815C816D81D9
:100590007E8180E090E026960FB6F894DEBF0FBE15
:1005A000CDBFDF91CF9108950C94980C0C94980CCA
:1005B0000C94980C0C94980C4F925F926F927F92CF
:1005C0008F929F92AF92BF92CF92DF92EF92FF9263
:1005D0000F931F93CF93DF93CDB7DEB762970FB61C
:1005E000F894DEBF0FBECDBF8C01CB01BA010E94D3
:1005F00005096B017C01F801648175818681978111
:100600000E9403099B01AC01C701B6010E94CE0AFA
:100610002B013C0140E050E0BA01C8010E94B10248
:100620002D873E874F87588B698B7A8BF8016685BB
:100630007785072E000C880B990B0E940509A301F2
:1006400092010E9440096B017C0169897A89072E19
:10065000000C880B990B0E9405099B01AC01C70196
:10066000B6010E94620A0E94760B6B017C0140E099
:1006700050E0BA01C8010E94B1022F833887498730
:100680005A876B877C87F80164857585072E000C77
:10069000880B990B0E940509A30192010E94400951
:1006A0004B015C0169857A85072E000C880B990B3C
:1006B0000E9405099B01AC01C501B4010E94620AB8
:1006C0000E94760B4B015C0140E050E0BA01C8018A
:1006D0000E94B10229833A834B835C836D837E83BE
:1006E000F80162857385072E000C880B990B0E9418
:1006F0000509A30192010E9440092B013C01698177
:100700007A81072E000C880B990B0E9405099B012A
:10071000AC01C301B2010E94620A0E94760B0E94E2
:10072000400BF801718B608BC501B4010E94400B36
:10073000F801738B628BC701B6010E94400BF80170
:10074000758B648B86E07096DE01119601900D9298
:100750008A95E1F729813A814B815C816D817E81A7
:1007600080E090E062960FB6F894DEBF0FBECDBF7A
:10077000DF91CF911F910F91FF90EF90DF90CF907D
:10078000BF90AF909F908F907F906F905F904F90B1
:100790000895CF92DF92EF92FF92CF93DF93EC0117
:1007A000CE80DF808FEFC81AD80A0D2C000CEE081F
:1007B000FF081C141D041E041F04FCF40E94AB0857
:1007C000A70196010E94FE096B010E9471016887D2
:1007D00079878A879B87DD82CC82CC0CDD1C8A815D
:1007E0009B81C80ED91EF60180819181DF91CF9146
:1007F000FF90EF90DF90CF900895C12CD12C76011F
:10080000E4CF1F920F920FB60F9211242F933F93B4
:100810008F939F93AF93BF938091FC019091FD01C3
:10082000A091FE01B091FF013091FB0123E0230F65
:100830002D3758F50196A11DB11D2093FB01809322
:10084000FC019093FD01A093FE01B093FF01809104
:10085000F7019091F801A091F901B091FA01019688
:10086000A11DB11D8093F7019093F801A093F901A8
:10087000B093FA01BF91AF919F918F913F912F91CA
:100880000F900FBE0F901F90189526E8230F029629
:10089000A11DB11DD2CF1F920F920FB60F9211243E
:1008A0002F933F934F935F936F937F938F939F9378
:1008B000AF93BF93EF93FF9386E591E00E94FB0116
:1008C000FF91EF91BF91AF919F918F917F916F9128
:1008D0005F914F913F912F910F900FBE0F901F90FE
:1008E00018951F920F920FB60F9211242F938F938A
:1008F0009F93EF93FF93E0916601F09167018081F0
:10090000E0916C01F0916D0182FD1BC0908180919E
:100910006F018F5F8F7320917001821741F0E0911A
:100920006F01F0E0EA5AFE4F958F80936F01FF91BF
:10093000EF919F918F912F910F900FBE0F901F906D
:1009400018958081F4CFCF93DF93CDB7DEB728978A
:100950000FB6F894DEBF0FBECDBF789484B5826029
:1009600084BD84B5816084BD85B5826085BD85B553
:10097000816085BD80916E00816080936E001092D1
:10098000810080918100826080938100809181004C
:1009900081608093810080918000816080938000DD
:1009A0008091B10084608093B1008091B00081603B
:1009B0008093B00080917A00846080937A00809167
:1009C0007A00826080937A0080917A0081608093BF
:1009D0007A0080917A00806880937A001092C1003A
:1009E000E0916601F091670182E08083E09162010D
:1009F000F09163011082E0916401F09165018FEC48
:100A0000808310926E01E0916A01F0916B01A6E083
:100A10008A2E8082E0916801F09169018081806175
:100A20008083E0916801F091690180818860808312
:100A3000E0916801F0916901808180688083E09194
:100A40006801F091690180818F7D808347E150E0EA
:100A50006AE371E086E591E00E947D0142E050E0AA
:100A600062E571E086E591E00E947D0186E090E01C
:100A70000E94FC0B7C010FEF10E0DC0111961C932F
:100A80000E9313961C921E92129715961C921E920C
:100A9000149788E090E00E94FC0B4C01B0E2AB2E72
:100AA000B1E0BB2EFC01B182A082F382E28288E831
:100AB000482E83E1582E612C712C44825582668227
:100AC000778286E090E00E94FC0B5C01FC011182C1
:100AD0001082138212821583048388E090E00E94C2
:100AE000FC0B7C01E0E2F1E0DC011196FC93EE935B
:100AF0001396BC92AE92129714964D925D926D929F
:100B00007C92179786E090E00E94FC0B6C01FC0140
:100B100011830083138302831583048388E090E0AC
:100B20000E94FC0B1C01E0E2F1E0DC011196FC9359
:100B3000EE931396DC92CE92129714964D925D929C
:100B40006D927C92179786E090E00E94FC0B98874C
:100B50008F83FC0191828082F382E282358224823B
:100B60008CE090E00E94FC0B8C01EF81F885DC01A9
:100B70001396FC93EE93129715961C921E9214975F
:100B800022E030E017963C932E93169718961D920C
:100B90001D921D921C921B97E4E3F1E0ED93FC93F0
:100BA00082E090E00E94FC0B7C01DC010D931C9321
:100BB0008CE090E00E94FC0B8C018BE090E0F8014F
:100BC0009183808389E090E0938382838AE090E040
:100BD00095838483F782E6821186108613861286B7
:100BE00061E08BE00E94E30061E0D80112968C91F5
:100BF0000E94E30061E0F80184810E94E30086E145
:100C000090E00E94FC0B7C01DC011396DC92CE92FA
:100C10001297FC0144825582668277828AE291E0D3
:100C200091838083B186A086F601509686E001907C
:100C30000D928A95E1F7D50114968D919C911597A7
:100C4000F60124813581821B930B12962D913C91E4
:100C5000139742815381241B350B4D915C91608128
:100C60007181461B570BD7011B965C934E931A97C5
:100C70001D963C932E931C971F969C938E931E97C4
:100C800086E090E00E94FC0B6C01FC019182808266
:100C900033822282F582E4828CE090E00E94FC0B99
:100CA0007C01DC011396DC92CE92129715961C9271
:100CB0001E921497E2E0F0E01796FC93EE931697DD
:100CC00018961D921D921D921C921B97E4E3F1E071
:100CD000ED93FC9382E090E00E94FC0B6C01DC0140
:100CE000ED92FC928CE090E00E94FC0B7C0186E08F
:100CF00090E0F7019183808383E090E09383828387
:100D000085E090E095838483D782C6821186108621
:100D10001386128661E086E00E94E30061E0D7015D
:100D200012968C910E94E30061E0F70184810E9499
:100D3000E30084E090E00E94FC0B6C01DC01119662
:100D40001C930E931396FC92EE92129784E090E01F
:100D50000E94FC0BFC01D182C08222E0822E912CE9
:100D6000938282829093F6018093F50181E190E075
:100D70000E94FC0B8C018CE090E0D80111969C93B2
:100D80008E9313961C921E92129715961C921E9289
:100D900014970E947101F801668377838087918799
:100DA00081E0828760E08CE00E94E300D8011C961D
:100DB000DC92CE921B971E969C928E921D97509617
:100DC0001C921E921F971093F4010093F301332499
:100DD0003394E090F501F090F6010E9471012B012F
:100DE0003C0110E000E0F7018281938108171907A8
:100DF00008F08DC06801CC0CDD1C0190F081E02D65
:100E0000EC0DFD1DA081B18118968D919C911997D3
:100E1000880F991F1696ED91FC91E80FF91FA0819C
:100E2000B18114968D919C911597880F991F1296F8
:100E3000ED91FC911397E80FF91F80819181FC01DE
:100E4000448155816681778118968D909D90AD90F3
:100E5000BC901B97480D591D6A1D7B1D44155505F7
:100E60006605770540F4ED91FC9111970190F081B2
:100E7000E02DCD010995D701ED91FC91EC0DFD1D03
:100E8000A081B18118962D913C911997220F331FA3
:100E90001696ED91FC91E20FF31F0190F081E02D89
:100EA000408551856285738553014201841A950AF4
:100EB000A60AB70AB501A401DC01ED91FC910190ED
:100EC000F081E02D099529833A834B835C836D8300
:100ED0007E83F70180819181C80ED91ED601CD9005
:100EE000DC9069817A81F60180810E9414016D8114
:100EF0007E81D60112968C910E9414016B817C81B7
:100F0000F60184810E9414010F5F1F4F6CCF009186
:100F1000F3011091F401D8012D913C913327F9018F
:100F2000E255FF4F8491F901E656FF4FF490F90125
:100F3000EA57FF4FE490EE2009F459C081110E9456
:100F40008C00EE2DF0E0EE0FFF1FE859FF4FA5914A
:100F5000B491EC91FE2209F44AC0F80182858823FD
:100F600031F0128682819381019693838283F80106
:100F70008481958115821482009751F127853089EB
:100F800037FD62C0220F331F43855485240F351F60
:100F9000D901ED91FC91408551859C01240F351FAD
:100FA00062857385621773070CF04BC09B01241B8D
:100FB000350B821B930B01976F5F7F4F0E94CE0B07
:100FC0009187808788248A94982CF801908A878654
:100FD00080E0882E80E0982E892809F4FACE0E94BD
:100FE000E701882309F4F5CE0E940000F2CE0E94AA
:100FF0007101AB01BC01D8011A968C91811106C018
:10100000F80146835783608771873286F8018681AD
:101010009781A085B18588519C4FAF4FBF4F8417F2
:101020009507A607B70708F0A2CF828193810097A2
:1010300011F095838483D80113961C921E92129707
:1010400096CF31872087BECF25853685281739076B
:101050002CF421503109308B2787BACF0197908B20
:101060008787B6CFE6E5F1E01382128288EE93E03F
:10107000A0E0B0E084839583A683B7838EE091E0FF
:101080009183808385EC90E09587848784EC90E061
:101090009787868780EC90E0918B808B81EC90E045
:1010A000938B828B82EC90E0958B848B86EC90E026
:1010B000978B868B118E128E138E148E08958F92BD
:1010C0009F92AF92BF92CF92DF92EF92FF92CF9317
:1010D000DF93EC01688179818A819B8161157105BB
:1010E0008105910521F464E279ED8BE597E02DE12E
:1010F00033EF41E050E00E94FE0949015A019B0193
:10110000AC01A7EAB1E40E941D0A6B017C01ACEEC0
:10111000B4EFA50194010E942B0AC60ED71EE81E4B
:10112000F91EF7FE06C081E0C81AD108E10880E880
:10113000F80AC882D982EA82FB82C701B6019F778A
:10114000DF91CF91FF90EF90DF90CF90BF90AF9065
:101150009F908F9008958F929F92AF92BF92CF925F
:10116000DF92EF92FF9260910001709101018091F6
:10117000020190910301611571058105910521F42A
:1011800064E279ED8BE597E02DE133EF41E050E04B
:101190000E94FE0949015A019B01AC01A7EAB1E492
:1011A0000E941D0A6B017C01ACEEB4EFA501940115
:1011B0000E942B0AC60ED71EE81EF91EF7FE06C0B7
:1011C00081E0C81AD108E10880E8F80AC09200015D
:1011D000D0920101E0920201F0920301C701B60131
:1011E0009F77FF90EF90DF90CF90BF90AF909F9050
:1011F0008F90089560930001709301018093020124
:10120000909303010895E89409C097FB3EF49095EC
:101210008095709561957F4F8F4F9F4F9923A9F0CF
:10122000F92F96E9BB279395F6958795779567955E
:10123000B795F111F8CFFAF4BB0F11F460FF1BC0A2
:101240006F5F7F4F8F4F9F4F16C0882311F096E935
:1012500011C0772321F09EE8872F762F05C06623E3
:1012600071F096E8862F70E060E02AF09A95660F9C
:10127000771F881FDAF7880F9695879597F9089555
:101280000E9453090C94C4090E94B60938F00E94C8
:10129000BD0920F0952311F00C94AD090C94B3090D
:1012A00011240C94F8090E94D50970F3959FC1F39D
:1012B000950F50E0551F629FF001729FBB27F00D04
:1012C000B11D639FAA27F00DB11DAA1F649F662759
:1012D000B00DA11D661F829F2227B00DA11D621FA8
:1012E000739FB00DA11D621F839FA00D611D221F62
:1012F000749F3327A00D611D231F849F600D211D46
:10130000822F762F6A2F11249F5750409AF0F1F0C8
:1013100088234AF0EE0FFF1FBB1F661F771F881F31
:1013200091505040A9F79E3F510580F00C94AD09B3
:101330000C94F8095F3FE4F3983ED4F386957795D3
:101340006795B795F795E7959F5FC1F7FE2B880FD7
:10135000911D9695879597F9089597F99F6780E86D
:1013600070E060E008959FEF80EC089500240A94F7
:101370001616170618060906089500240A94121670
:101380001306140605060895092E0394000C11F4A3
:10139000882352F0BB0F40F4BF2B11F460FF04C050
:1013A0006F5F7F4F8F4F9F4F089557FD9058440FA9
:1013B000551F59F05F3F71F04795880F97FB991FB4
:1013C00061F09F3F79F08795089512161306140671
:1013D000551FF2CF4695F1DF08C0161617061806FE
:1013E000991FF1CF86957105610508940895E894D9
:1013F000BB2766277727CB0197F90895052E97FB22
:101400001EF400940E94150A57FD07D00E94300A6E
:1014100007FC03D04EF40C94150A50954095309576
:1014200021953F4F4F4F5F4F089590958095709550
:1014300061957F4F8F4F9F4F08950E94520AA59F3D
:10144000900DB49F900DA49F800D911D11240895BF
:10145000B7FF0C941D0A0E941D0A821B930B08956E
:10146000A1E21A2EAA1BBB1BFD010DC0AA1FBB1FA8
:10147000EE1FFF1FA217B307E407F50720F0A21B1A
:10148000B30BE40BF50B661F771F881F991F1A9487
:1014900069F760957095809590959B01AC01BD01B1
:1014A000CF010895A29FB001B39FC001A39F700D0B
:1014B000811D1124911DB29F700D811D1124911D5C
:1014C00008955058BB27AA270E94790A0C94C40992
:1014D0000E94B60938F00E94BD0920F039F49F3F00
:1014E00019F426F40C94B3090EF4E095E7FB0C9480
:1014F000AD09E92F0E94D50958F3BA17620773079F
:101500008407950720F079F4A6F50C94F7090EF4FA
:10151000E0950B2EBA2FA02D0B01B90190010C0103
:10152000CA01A0011124FF27591B99F0593F50F41B
:10153000503E68F11A16F040A22F232F342F442773
:10154000585FF3CF469537952795A795F04053956B
:10155000C9F77EF41F16BA0B620B730B840BBAF03B
:101560009150A1F0FF0FBB1F661F771F881FC2F7A6
:101570000EC0BA0F621F731F841F48F487957795BA
:101580006795B795F7959E3F08F0B0CF9395880F74
:1015900008F09927EE0F9795879508950E94E20A23
:1015A0000C94C4090E94BD0958F00E94B60940F08D
:1015B00029F45F3F29F00C94AD0951110C94F809FE
:1015C0000C94B3090E94D50968F39923B1F355230C
:1015D00091F3951B550BBB27AA2762177307840746
:1015E00038F09F5F5F4F220F331F441FAA1FA9F3DC
:1015F00035D00E2E3AF0E0E832D091505040E695CA
:10160000001CCAF72BD0FE2F29D0660F771F881F2A
:10161000BB1F261737074807AB07B0E809F0BB0B1D
:10162000802DBF01FF2793585F4F3AF09E3F510531
:1016300078F00C94AD090C94F8095F3FE4F3983E00
:10164000D4F3869577956795B795F7959F5FC9F71A
:10165000880F911D9695879597F90895E1E0660F9B
:10166000771F881FBB1F621773078407BA0720F014
:10167000621B730B840BBA0BEE1F88F7E09508957D
:101680000E94470B6894B1110C94F80908950E94C8
:10169000DD0988F09F5798F0B92F9927B751B0F01E
:1016A000E1F0660F771F881F991F1AF0BA95C9F7E6
:1016B00014C0B13091F00E94F709B1E008950C9484
:1016C000F709672F782F8827B85F39F0B93FCCF337
:1016D000869577956795B395D9F73EF49095809563
:1016E000709561957F4F8F4F9F4F08950E94B60B65
:1016F00090F09F3748F4911116F00C94F80960E0CF
:1017000070E080E89FEB089526F41B16611D711DA3
:10171000811D0C948D0B0C94A80B882371F47723F6
:1017200021F09850872B762F07C0662311F4992754
:101730000DC09051862B70E060E02AF09A95660FFC
:10174000771F881FDAF7880F9695879597F9089580
:101750009F3F31F0915020F4879577956795B79525
:10176000880F911D9695879597F908950E94DD0938
:10177000A0F0BEE7B91788F4BB279F3860F41616AF
:10178000B11D672F782F8827985FF7CF86957795BB
:101790006795B11D93959639C8F3089597FB072E69
:1017A00016F4009407D077FD09D00E94E20B07FCE5
:1017B00005D03EF4909581959F4F08957095619561
:1017C0007F4F0895AA1BBB1B51E107C0AA1FBB1F77
:1017D000A617B70710F0A61BB70B881F991F5A95BD
:1017E000A9F780959095BC01CD010895EE0FFF1FDC
:1017F0000590F491E02D09940F931F93CF93DF93FD
:101800008230910510F482E090E0E0910202F091C4
:10181000030230E020E0B0E0A0E0309799F4211519
:10182000310509F44AC0281B390B24303105D8F59D
:101830008A819B816115710589F1FB019383828304
:10184000FE0111C04081518102811381481759075F
:10185000E0F04817590799F4109761F012960C932D
:10186000129713961C933296CF01DF91CF911F915F
:101870000F9108950093020210930302F4CF2115F3
:10188000310551F04217530738F0A901DB019A01E5
:10189000BD01DF01F801C1CFEF01F9CF9093030241
:1018A00080930202CDCFFE01E20FF31F819391934B
:1018B0002250310939832883D7CF209100023091FB
:1018C0000102232B41F4209106013091070130934E
:1018D000010220930002209104013091050121159D
:1018E000310541F42DB73EB74091080150910901EF
:1018F000241B350BE0910002F0910102E217F3077F
:10190000A0F42E1B3F0B2817390778F0AC014E5F6F
:101910005F4F2417350748F04E0F5F1F50930102A9
:1019200040930002819391939FCFF0E0E0E09CCF41
:10193000CF93DF930097E9F0FC0132971382128274
:10194000A0910202B0910302ED0130E020E0109777
:10195000A1F420813181820F931F209100023091E8
:1019600001022817390709F061C0F0930102E093E2
:101970000002DF91CF910895EA01CE17DF07E8F565
:101980004A815B819E0141155105B1F7E901FB8355
:10199000EA8349915991C40FD51FEC17FD0761F4F3
:1019A000808191810296840F951FE9019983888334
:1019B000828193819B838A83F0E0E0E012968D918F
:1019C0009C9113970097B9F52D913C911197CD01FA
:1019D0000296820F931F2091000230910102281776
:1019E000390739F6309751F510920302109202022E
:1019F000B0930102A0930002BCCFD383C283408185
:101A00005181840F951FC817D90761F44E5F5F4F4E
:101A100088819981480F591F518340838A819B8116
:101A2000938382832115310509F0B0CFF09303022F
:101A3000E09302029ECFFD01DC01C0CF138212822F
:061A4000D7CFF894FFCFA0
:101A460001000000000004028000000000001D02EA
:101A56007D01AA016A02DB01B901CD010000000087
:101A6600B1028A02D40200000000DC028B02D60218
:101A760000000000C903B002DA025374617274698F
:101A86006E67204C4544205363686564756C6572C7
:061A960021000D0A000012
:00000001FF
